:020000040800F2
:10000000E00E002001010008772A0008EF26000812
:10001000752A0008650A00080D2F0008000000007E
:10002000000000000000000000000000732B00082A
:10003000670A000800000000992A0008190100085A
:100040001B0100081B0100081B0100081B01000820
:100050001B0100081B0100081B0100081B01000810
:100060001B0100081B0100081B0100081B01000800
:100070001B0100081B0100081B0100081B010008F0
:100080001B0100081B0100081B0100081B010008E0
:100090001B0100081B0100081B0100081B010008D0
:1000A0001B010008292C00081B0100081B01000887
:1000B0001B0100081B0100081B0100081B010008B0
:1000C0001B0100081B0100081B0100081B010008A0
:1000D0001B0100081B0100081B0100081B01000890
:1000E0001B0100081B0100081B010008DFF80CD0F1
:1000F00000F040FB00480047953A0008E00E002061
:100100000648804706480047FEE7FEE7FEE7FEE7B1
:10011000FEE7FEE7FEE7FEE7FEE7FEE7E12B00086D
:10012000ED000008202A04DB203A21FA02F0002129
:10013000704721FA02F3D040C2F1200291400843F7
:100140001946704740EA01039B0703D009E008C93C
:10015000121F08C0042AFAD203E011F8013B00F88C
:10016000013B521EF9D27047D2B201E000F8012BD8
:10017000491EFBD270470022F6E710B513460A4627
:1001800004461946FFF7F0FF204610BD2DE9FE4F4B
:10019000804681EA0300C00F0C46009021F0004128
:1001A00023F00045B8EB0200A94105D240462146A4
:1001B00090461C460B46024623F00040104347D0B1
:1001C000270DC7F30A00C3F30A510290401A0190A9
:1001D00040286BDAC3F3130040F4801B009892466A
:1001E00020B10023D2EB030A63EB0B0B01985946B5
:1001F000C0F14002504600F0D8F906460D46504680
:100200005946019A00F0E0F910EB08006141002422
:1002100087EA115284EAE7731A4340D0009A62B326
:10022000019A012A4FEA075215DC001B61EB02011B
:100230004FF0004202EA0752CDE90042001C41F5AE
:10024000801132462B4600F017FA03B0BDE8F08F5C
:1002500040462146F9E7001B61EB0201001C41F515
:10026000801300185B412018A2F5001747EB03012B
:1002700040EAD570B6196D4111E06D084FEA3606B7
:1002800045EAC0754FEA0752001B61EB0201001CF2
:1002900041F5801149084FEA3000001951413246BA
:1002A0002B4603B0BDE8F04F00F0D7B9009801220B
:1002B00040000023D0EB020263EBE073009821467C
:1002C0004FEAE074B8EB000061EB0401E9E783F06A
:1002D00000435BE781F0004158E72DE9FE4F81EADA
:1002E000030404F0004421F0004100944FF0000B9F
:1002F00023F0004350EA01045ED052EA03045BD0CD
:10030000C3F30A54C1F30A552C44A4F2F334019404
:10031000A0FB0254C1F3130141F48011C3F3130392
:1003200043F4801301FB024400FB034E840A970A46
:1003300044EA815447EA8357A4FB076802958D0A73
:1003400005FB07854FEA932C04FB0C542705029DFF
:100350004FEA065847EA1637B5EB08056EEB070C6F
:10036000870E920E47EA811742EA8312A7FB020129
:10037000B6EB0B0164EB00042B0D43EA0C335E1863
:1003800044EB1C50DA465146E7FB0201C5F3130467
:100390004FEA0B3343EA14534FEA0432019C43EA19
:1003A0000603A4F10C040294009CCDE900B400F013
:1003B00063F903B0BDE8F08F00200146F9E72DE9AD
:1003C000F04D81EA030404F0004B21F0004514468F
:1003D0004FF0000A23F0004150EA050220D054EA11
:1003E00001021DD0C5F30A570246C5F31303C1F33A
:1003F0001300C1F30A5640F4801543F48013A7EBB1
:100400000608101BD64608F2FD3873EB050002D330
:1004100008F1010801E092185B41B8F1000F03DA1E
:1004200000200146BDE8F08D00204FF48011064603
:1004300084460EE0171B73EB050705D3121B63EB15
:10044000050306434CEA010C49084FEA30009218B4
:100450005B4150EA0107EDD152EA030012D082EA73
:10046000040083EA0501084305D0101BAB4106D206
:100470000122002306E000224FF0004302E06FF06B
:10048000010253101AEB06004CEB085110EB0A0066
:1004900041EB0B01BDE8F04D00F0DFB80EB5C10F28
:1004A00080EAE0700844CA07002140F233438DE837
:1004B0000E000A460B4600F0DFF803B000BD00F066
:1004C000004230F000400AD0C10D01F56071C0F368
:1004D000160042EA0151C20840071143704700204C
:1004E0000146704701F0004330B421F0004150EA6A
:1004F000010206D00A0DA2F56072C1F31301002AB1
:1005000002DC30BC00207047440F44EAC104C10043
:10051000E01830BC00EBC25000F068B830B50B46B4
:10052000014600202022012409E021FA02F59D4223
:1005300005D303FA02F5491B04FA02F52844151EF7
:10054000A2F10102F1DC30BD2DE9F05F054600208B
:1005500092469B4688460646814640241BE0284634
:10056000414647462246FFF7DDFD53465A46C01A2C
:10057000914110D311461846224600F016F82D1A64
:1005800067EB01084F4622460120002100F00DF8DC
:1005900017EB00094E41201EA4F10104DFDC4846A0
:1005A00031462A464346BDE8F09F202A04DB203A24
:1005B00000FA02F1002070479140C2F1200320FAB6
:1005C00003F3194390407047202A06DBCB17203AEB
:1005D00041FA02F043EAE07306E041FA02F3D04048
:1005E000C2F1200291400843194670470029A8BF74
:1005F0007047401C490008BF20F00100704710B44C
:10060000B0FA80FC00FA0CF050EA010404BF10BC00
:10061000704749B1CCF1200421FA04F411FA0CF12D
:1006200018BF012121430843A3EB0C01CB1D4FEA66
:1006300000614FEA102042BF002010BC704700EB61
:10064000C35010440029A4BF10BC7047401C49008F
:1006500008BF20F0010010BC704710B5141E73F1E4
:10066000000408DA401C41F1000192185B411A4372
:1006700001D120F0010010BD2DE9F04D92469B46BE
:1006800011B1B1FA81F202E0B0FA80F22032904664
:10069000FFF78BFF04460F4640EA0A0041EA0B01D0
:1006A00053465A46084313D0114653EA010019D065
:1006B000C8F140025046FFF735FD05460E4650464C
:1006C00059464246FFF771FF084305D0012004E078
:1006D00020463946BDE8F08D0020054346EAE07625
:1006E0002C4337430A986305E40AA0EB0800002274
:1006F000FD0A44EA47540A3002D500200146E9E7E2
:10070000010510196941DDE9084500196941BDE895
:10071000F04DA2E7C1F30A52C1F3130140F2FF33D7
:1007200041F480119A4202DA00200146704740F2FB
:1007300033439A42A2F2334202DC5242FFF7F2BC48
:10074000FFF733BF30B5041E71F1000404DB4FF036
:100750000044404264EB0101141E73F1000405DB08
:100760001C464FF00043524263EB0403994208BF1A
:10077000904230BD064C074D06E0E06840F00103B2
:1007800094E8070098471034AC42F6D3FFF7B2FC68
:100790003C4500085C45000870B5144C0546002235
:1007A00094F85C1054F8580F00F05CFB022000F045
:1007B0005BF921790122206800F054FB022000F04F
:1007C00053F921790022206800F04CFB022000F050
:1007D0004BF9284602F072F9022000F045F9217920
:1007E0002068BDE87040012200F03CBB28010020D9
:1007F00070B5164D002495F86410286E00F0DAFAF2
:1008000010BB95F85C100022A86D00F02BFB0220B5
:1008100000F02AF90E4EFF2002F050F93055641C0A
:10082000032CF8DB022000F01FF995F85C10012280
:10083000A86D00F017FB3078717841EA0020B1789C
:1008400041EA002000020412204670BD2801002069
:10085000190000200820FFF79FBF000010B5FFF728
:100860001DFE084A084BFFF738FD0022074BFFF733
:1008700034FD4FF04042064BFFF7A1FDBDE81040AC
:10088000FFF730BEFCA9F1D24D62004000408F401E
:10089000FFFF5F4110B503F041F92D4C002104200A
:1008A0002172217060701020A070E170084600F085
:1008B000B3F86178012000F0AFF8A178022000F0D1
:1008C000ABF8E178032000F0A7F8217821A002F02E
:1008D0001FFB617825A002F01BFBA17823A002F08A
:1008E00017FBE17821A002F013FB0A2000F0BCF80E
:1008F000002000F047F82071012000F043F86071FB
:10090000022000F03FF8A071032000F03BF8E071F6
:10091000217910A002F0FCFA617916A002F0F8FA31
:10092000A17914A002F0F4FAE17912A002F0F0FA31
:1009300012A002F0EDFA1248012290F85C10806DCE
:1009400000F090FABDE81040642000F08DB800007F
:1009500010000020436F6E6669675F526567203A3A
:100960000D0A20307825780D0A0000002030782507
:10097000780D0A00307825780D0A0000200000006C
:100980002801002070B52021104C41EA8000C5B23A
:1009900094F85C1054F8580F002200F063FA052018
:1009A00000F062F8284602F089F8FF2002F086F88D
:1009B0000546052000F058F821790122206800F052
:1009C00051FA052000F050F8284670BD280100209B
:1009D000044A117821F0F0010143C9B211700020DE
:1009E00000F01AB810000020044A517821F0E0010C
:1009F0000143C9B25170012000F00EB81000002070
:100A0000044A117821F00E010143C9B2117000208F
:100A100000F002B81000002070B50E464021104CC6
:100A200041EA8000C5B294F85C1054F8580F0022D7
:100A300000F018FA052000F017F8284602F03EF8FA
:100A4000304602F03BF8052000F00EF82179012233
:100A5000206800F007FABDE87040052000F004B8F7
:100A600028010020FEE7704770B5044600F030FA18
:100A70000546601C02D004480078044400F028FABF
:100A8000401BA042FAD370BD340000202DE9F84F7E
:100A9000DFF8A8B20D4604464FF0000958450FD0C4
:100AA000A74884420CD0A748844209D0A648844273
:100AB00006D0A648844203D0CD21A5A002F0A1FE15
:100AC00028680104090C01D0000C03D0CE21A0A09D
:100AD00002F097FE6868F8B101281DD011281BD0DC
:100AE000022819D0122817D0A849884214D0A84942
:100AF000884211D0A74988420ED0A74988420BD01E
:100B0000A649884208D0A649884205D0032803D0C8
:100B1000CF218FA002F075FE00274FF0010A00BF21
:100B20002E680AFA07F806EA080646456FD15C45C2
:100B30000FD0834884420CD08248844209D0824836
:100B4000844206D08148844203D0DD2180A002F097
:100B500058FE8E4869680A1A814259D00EDC032972
:100B600076D006DC002953D0012919D002296AD198
:100B700031E0112921D0122965D13AE0B2F5881F60
:100B800046D006DCB2F5803F42D0B2F5801F5AD184
:100B90003EE0B2F5001F3BD0B2F5041F53D137E061
:100BA000E868022807D0012805D0032803D0E521F2
:100BB00067A002F026FEE8683FE0E868022807D058
:100BC000012805D0032803D0EC2161A002F019FE12
:100BD000E868001D31E0E868022807D0012805D048
:100BE000032803D0F3215AA002F00BFEE868083076
:100BF00023E0E868022807D0012805D0032803D0A5
:100C0000FA2153A002F0FDFDE8680C3015E089E000
:100C1000A86888B1012812D0022808D040F2071134
:100C20004BA002F0EEFDA86830B1012807D04FF0CC
:100C30000809C4F8148006E00420814603E04FF060
:100C40000809C4F81080FF2E05D8224605E0FFE70A
:100C50004FF00000F1E704F104024FEA870001D9E8
:100C6000A0F1200013684FF00F0101FA00FC23EA05
:100C70000C0309FA00FC43EA0C0313606868C00027
:100C800056D54848826942F001028261806927F0A6
:100C9000030200F001000090434802449068BB0743
:100CA0001B0F994088435C4501D100210FE0244986
:100CB0008C4201D101210AE022498C4201D102215A
:100CC00005E021498C4201D1032100E00421994033
:100CD000014391606868C0033448016801D531431D
:100CE00000E0B1430160686880033148016801D5C4
:100CF000314300E0B14301606868C00205D52C486B
:100D0000001D01683143016004E02949091D08689C
:100D1000B04308606868800205D525490831086835
:100D20003043086004E0224808300168B1430160A4
:100D30007F1C102FFFF4F4AEBDE8F88F00080140CF
:100D4000000C014000100140001401400018014057
:100D50002E2E2F447269766572732F53544D3332A1
:100D6000463178785F48414C5F4472697665722FEE
:100D70005372632F73746D3332663178785F6861B4
:100D80006C5F6770696F2E63000000000000111037
:100D9000000021100000311000001210000022108D
:100DA0000000321000100240000001400004014029
:100DB0000404014070B50C00054604D140F2C31193
:100DC00003A002F01EFDA868204000D0012070BDE5
:100DD0002E2E2F447269766572732F53544D333221
:100DE000463178785F48414C5F4472697665722F6E
:100DF0005372632F73746D3332663178785F686134
:100E00006C5F6770696F2E630000000070B50C00A6
:100E1000054604D140F2F91103A002F0F2FCE868A3
:100E20006040E86070BD00002E2E2F447269766528
:100E300072732F53544D3332463178785F48414CAA
:100E40005F4472697665722F5372632F73746D33CA
:100E500032663178785F68616C5F6770696F2E63A6
:100E60000000000070B515460C00064604D140F2A3
:100E7000E31108A002F0C5FC45B1012D04D04FF4E8
:100E8000F27104A002F0BDFC346170BD2004306139
:100E900070BD00002E2E2F447269766572732F5339
:100EA000544D3332463178785F48414C5F44726923
:100EB0007665722F5372632F73746D333266317897
:100EC000785F68616C5F6770696F2E630000000077
:100ED00001488068704700003400002070B50400AD
:100EE00074D077492068884207D07649884204D078
:100EF00040F27D1174A002F084FC60688049401EBD
:100F0000884204D94FF4BF716FA002F07AFCA06848
:100F10004FF4804530B1A84204D040F27F116AA05E
:100F200002F06FFCE068800A04D04FF4C07166A044
:100F300002F067FC2069A84207D0B0F5404F04D00A
:100F400040F2811160A002F05CFC606930B10128C0
:100F500004D04FF4C1715CA002F053FCA06930F0E2
:100F6000FE0004D040F2831157A002F04AFCE06971
:100F700030B1402804D04FF4C27153A002F041FCBC
:100F8000206A30B1802804D040F285114EA002F0D2
:100F900038FC94F83D00002520B984F83C502046E8
:100FA00000F07AF9242084F83D002068016821F0DF
:100FB0000101016000F054FC524A6168914202D87C
:100FC000514901E002E05149884201D2012070BD3F
:100FD0004F492368B0FBF1F159606368934206D929
:100FE0004FF4967359434FF47A73B1FBF3F12368CE
:100FF000491C19626168914210D84900401EB0FB3B
:10100000F1F2521CC2F30B02042A01D2042023E0A5
:10101000B0FBF1F0401CC0F30B001DE0A368D3B39C
:1010200001EBC10202EB0116421EB2FBF6F2521CAA
:1010300042F48042120537D073B301EBC10202EBD8
:101040000111401EB0FBF1F0401CC0F30B0040F456
:10105000804000BF40F400402168C861D4E9070126
:10106000084321680860D4E90310084321688860B8
:10107000D4E9050108432168C8602068016841F08F
:10108000010101602564202084F83D00256384F877
:101090003E50002070BD00E008E001EB4106421E1A
:1010A000B2FBF6F2521CC5E70120D5E701EB410186
:1010B000401EB0FBF1F0401CC0F30B00CAE700007B
:1010C00000540040005800402E2E2F44726976656F
:1010D00072732F53544D3332463178785F48414C08
:1010E0005F4472697665722F5372632F73746D3328
:1010F00032663178785F68616C5F6932632E6300B5
:101100007F1A0600A086010080841E0000093D00B1
:1011100040420F002DE9FF4F83B01F46DDE911A8C3
:1011200093460446DDF84090FFF7D2FE0646012FB5
:1011300006D0102F04D040F6951147A002F061FBB5
:1011400094F83D0020287DD11923012250492046E2
:10115000009601F058FB00287CD194F83C0001284F
:1011600078D0012084F83C0020680168C90703D1C9
:10117000016841F0010101602068016821F400610B
:101180000160212084F83D00402084F83E000025C5
:101190002564C4F82490A4F82AA03E48E062608D3B
:1011A0002085CDE900863B465A462046049901F049
:1011B000B3FA80B3206C84F83C50042848D008E08F
:1011C00032464146204601F093FB30B1206C0428A2
:1011D00039D0032007B0BDE8F08F606A411C61621E
:1011E000216800780861208D401E80B22085618DC5
:1011F000491E618521684A69D24352070BD468B100
:10120000606A421C626200780861208D401E208561
:10121000608D401E6085208D0028D1D13246414628
:10122000204601F0C9FA0028D0D154F83D0B0168DE
:1012300041F400710160202004F81E09E57765770C
:101240000020C7E706E02068016841F400710160F2
:101250000120BFE70220BDE72E2E2F44726976657C
:1012600072732F53544D3332463178785F48414C76
:101270005F4472697665722F5372632F73746D3396
:1012800032663178785F68616C5F6932632E630023
:10129000020010000000FFFF10B586B00021009191
:1012A00001910291039100680F4988421AD10F4CB5
:1012B000A06940F00800A061A069694600F008003C
:1012C0000490C02000901220019003200390084851
:1012D000FFF7DCFBE06940F40010E061E06900F436
:1012E0000010049006B010BD0054004000100240F1
:1012F000000C014002488168027811448160704707
:1013000034000020074810B5016841F01001016069
:10131000032000F0E1F8002000F006F800F03EF8AD
:10132000002010BD0020024000B5014687B0002219
:10133000192000F081F8192000F04EF81348816957
:1013400041F400618161806905A900F400600690A4
:10135000684600F03BFA00F093FA0D490D4AB0FBE5
:10136000F1F10D48491E0260416040F2E732002170
:10137000C0E90321816000F015FF10B1012007B022
:1013800000BD054800F080FFF9E7000000100240B2
:1013900040420F00002C01409C0600200C4808B57C
:1013A000816941F001018161816901F001010091D0
:1013B000C16941F08051C161C06900F08050009066
:1013C0000448416821F0E06141F00071416008BDCE
:1013D000001002400000014010B5040003D5CE21EA
:1013E00006A002F00EFA04F01F01012088406109F6
:1013F000890001F1E021C1F8000110BD2E2E2F441B
:101400007269766572732F53544D33324631787852
:101410005F48414C5F4472697665722F5372632F47
:1014200073746D3332663178785F68616C5F636FB7
:10143000727465782E63000070B515460C4606463A
:10144000102A03D3BA2114A002F0DBF9102C03D325
:10145000BB2111A002F0D5F91E480068C0F3022399
:10146000C3F107022046042A00D90422191D0729C6
:1014700001D2002300E0DB1E012404FA02F1491E20
:10148000014099409C40641E2C4021433046BDE8F9
:10149000704001F0F1BA00002E2E2F44726976657B
:1014A00072732F53544D3332463178785F48414C34
:1014B0005F4472697665722F5372632F73746D3354
:1014C00032663178785F68616C5F636F72746578DB
:1014D0002E6300000CED00E010B5044607280BD089
:1014E000062C09D0052C07D0042C05D0032C03D0E2
:1014F000A22108A002F085F9154904F00702086846
:101500004FF6FF03184040EA0220124A10430860D9
:1015100010BD00002E2E2F447269766572732F5312
:10152000544D3332463178785F48414C5F4472699C
:101530007665722F5372632F73746D333266317810
:10154000785F68616C5F636F727465782E6300000A
:101550000CED00E00000FA052DE9F0470E4605000D
:1015600004D140F22E3187A002F04BF92868C10760
:101570000AD1810708D4410706D4000704D440F2F9
:101580002F3180A002F03DF946B1012E06D0022E87
:1015900004D04FF44C717BA002F033F9DFF81C82C9
:1015A000D8F8000000F00700B0420CD2D8F80010C4
:1015B00021F007013143C8F80010D8F8000000F00E
:1015C0000700B04275D128687D4C810729D54007B6
:1015D00003D5606840F4E06060602878000703D5B8
:1015E000606840F460506060A868A0B1802812D0A4
:1015F000902810D0A0280ED0B0280CD0C0280AD037
:10160000D02808D0E02806D0F02804D040F2563187
:101610005CA002F0F6F86068A96820F0F0000843CA
:1016200060602878C00751D0686868B1012821D06F
:10163000022822D040F25D3152A002F0E2F8686840
:10164000012817D0022818D02068800700284EDA19
:101650006068696820F0030008436060FFF738FCA9
:101660006968074641F2883001290FD00229814676
:1016700019D027E020688003E8E720688001E5E7CB
:10168000FFF726FCC11B494501D918E08146606877
:10169000C0F381000128F3D118E000BFFFF718FC68
:1016A000C11B49450BD86068C0F381000228F5D101
:1016B0000CE01CE0FFF70CFCC11B494502D90320DC
:1016C000BDE8F087606810F00C0FF3D1D8F8001077
:1016D000404601F00701B1420BD9016821F0070132
:1016E00031430160006800F00700B04201D00120E2
:1016F000E6E728784FF4806640074FF4A0674FF480
:10170000C0684FF4E06914D5E86860B1B0420AD00F
:10171000B84208D0404506D0484504D040F2B13127
:1017200018A002F06EF86068E96820F4E0600843F1
:1017300060602878000715D5286960B1B0420AD0EA
:10174000B84208D0404506D0484504D04FF46E71E9
:101750000CA002F056F86068296920F4605040EA55
:10176000C100606000F09CF86168164AC1F3031183
:10177000515CC840144908600020FFF7D5FD0020E7
:101780009EE700002E2E2F447269766572732F53E8
:10179000544D3332463178785F48414C5F4472692A
:1017A0007665722F5372632F73746D33326631789E
:1017B000785F68616C5F7263632E63000020024093
:1017C00000100240244500084000002070B50D467E
:1017D000040004D14FF4A66111A002F012F825B95B
:1017E00040F231510EA002F00CF80F2020601A4890
:1017F000416801F003016160416801F0F001A160FE
:10180000416801F4E061E16040684FF4E06101EAA1
:10181000D00020611148006800F00700286070BD0A
:101820002E2E2F447269766572732F53544D3332C6
:10183000463178785F48414C5F4472697665722F13
:101840005372632F73746D3332663178785F6861D9
:101850006C5F7263632E6300001002400020024040
:101860000448054900684968044AC1F30221515CF3
:10187000C840704740000020001002403445000876
:101880000448054900684968044AC1F3C221515C13
:10189000C840704740000020001002403445000856
:1018A00012A185B00FC98DE80F0014A0144A00687A
:1018B00004905168134801F00C03042B10D0082B3E
:1018C0000ED1C1F38343C9031DF803000AD5516843
:1018D00004AAC1F34041515C0A4A5043B0FBF1F005
:1018E00005B0704708494843FAE7000002030405C1
:1018F000060708090A0B0C0D0E0F1010010200005C
:101900000010024000127A0000093D002DE9F84F56
:10191000040004D14FF4B871F4A001F072FF4FF04D
:10192000010A4FF000084FF48039FE4EFE4D20684A
:1019300060B1C1070DD1810763D401077ED4400790
:101940007DD440F27111E9A001F05BFF2078C0075F
:1019500054D060684FF4A02740B1484506D0B84243
:1019600004D040F27711E1A001F04BFF6868C0F3AA
:101970008100012807D06868C0F38100022809D1DE
:101980006868C00306D52868800337D560680028DA
:1019900076D033E06068484503D1286840F4803051
:1019A00009E008B1B8420DD0286820F480302860E2
:1019B000286820F480202860606890B1FFF788FADA
:1019C00007460AE0286840F480202860E5E700BF69
:1019D000FFF77EFAC01B642877D828688003F7D504
:1019E0000CE0FFF775FA074605E000BFFFF770FA55
:1019F000C01B6428F0D828688003F7D420788007BB
:101A00004ED5206930B1012804D040F2AB11B7A007
:101A100001F0F7FE60691F2804D94FF4D671B3A016
:101A200001F0EFFE686810F00C0F0AD06868C0F390
:101A3000810002280CD16868C00301E033E06CE04B
:101A400006D42868800713D52069012818D10FE033
:101A50002069B0B1C6F800A0FFF73AFA074604E0E3
:101A6000FFF736FAC01B0228B6D828688007F7D5DA
:101A70002868616920F0F80040EAC10028600FE0A2
:101A800033E1C6F80080FFF723FA074605E000BF00
:101A9000FFF71EFAC01B02289ED828688007F7D4DB
:101AA0002078000736D5A14FA06920B3012806D0C1
:101AB0004FF4F6718DA001F0A4FEA069D8B1C7F86B
:101AC00000A0FFF705FA074605E052E1FFF700FA2C
:101AD000C01B02288ED8686A8007F7D594484FF457
:101AE000FA510068B0FBF1F0009000BF0098411E71
:101AF0000091FAD20EE0C7F80080FFF7E9F9074637
:101B000005E000BFFFF7E4F9C01B0228ACD8686A03
:101B10008007F7D4207840076CD5E068002740B1F3
:101B2000012806D0052804D040F21B216FA001F047
:101B300068FEE869C00008D4E86940F08050E861B8
:101B4000E869012700F0805000907A480168C905D3
:101B500012D4016841F480710160FFF7B9F983463E
:101B600006E000BFFFF7B4F9A0EB0B00642893D8A0
:101B700070480068C005F5D5E06801280AD008B1B2
:101B8000052811D0286A20F001002862286A20F078
:101B9000040002E0286A40F001002862E068A8B171
:101BA000FFF796F983460DE0286A40F004002862AA
:101BB000F0E700BFFFF78CF9A0EB0B0141F2883092
:101BC000814287D8286A8007F4D50EE0FFF780F9B4
:101BD000834607E0FFF77CF9A0EB0B0141F2883068
:101BE000814293D8286A8007F4D41FB1E86920F0B5
:101BF0008050E861E069002876D0012809D00228E9
:101C000007D040F2B92139A001F0FBFDE0690028BE
:101C10006AD06868C0F38100022866D0E0690228B3
:101C200005D0C6F86080FFF753F90446A4E0206AA7
:101C300030B1484504D040F2C2212CA001F0E1FDB2
:101C4000606A70B3B0F5802F2BD0B0F5002F28D08C
:101C5000B0F5402F25D0B0F5801F22D0B0F5A01FE1
:101C60001FD0B0F5C01F1CD0B0F5E01F19D0B0F5E3
:101C7000001F16D0B0F5101F13D0B0F5201F10D0E4
:101C8000B0F5301F0DD0B0F5401F0AD0B0F5501F91
:101C900007D0B0F5601F04D040F2C32113A001F0BB
:101CA000B0FDC6F86080FFF713F9074605E000BFF6
:101CB000FFF70EF9C01B02285BD828688001F7D413
:101CC000206A48450FD1A06838B1B0F5003F04D074
:101CD00040F2D92105A001F094FD6868A16820F4C4
:101CE00000300843686027E049E04AE02E2E2F4488
:101CF0007269766572732F53544D3332463178785A
:101D00005F48414C5F4472697665722F5372632F4E
:101D100073746D3332663178785F68616C5F7263BB
:101D2000632E6300000042420010024080044242E1
:101D30004000002000700040D4E9080108436968B1
:101D400021F4741108436860C6F860A0FFF7C0F87A
:101D5000044604E0FFF7BCF8001B022809D82868F5
:101D60008001F7D50BE000BFFFF7B2F8001B022897
:101D700002D90320BDE8F88F28688001F4D4002040
:101D8000F8E70120F6E7000070B5040066D04F497F
:101D90002068884206D04E49884203D06B214DA06E
:101DA00001F02FFD606830B1B0F5827F03D06C2167
:101DB00048A001F026FDA06848B1B0F5806F06D0BC
:101DC000B0F5004F03D06D2142A001F01AFDE0688C
:101DD000B0F5006F04D018B16E213EA001F011FDE6
:101DE000206928B1022803D06F213AA001F009FD33
:101DF000606928B1012803D0702136A001F001FDEF
:101E0000A069B0F5007F07D030B1B0F5802F03D0C6
:101E1000712130A001F0F5FCE06988B108280FD0ED
:101E200010280DD018280BD0202809D0282807D03A
:101E3000302805D0382803D0722126A001F0E1FC1B
:101E4000206A28B1802803D0732122A001F0D9FC98
:101E50000025A56294F8510010B104E0012070BD86
:101E6000204600F055F8022084F8510020680168EF
:101E700021F040010160D4E901010843D4E90312D3
:101E80001143084361690843218B01F40071084341
:101E9000E1690843216A0843A16A08432168086090
:101EA000A069042101EA1040616A08432168486082
:101EB0002168E06A08612068C16921F40061C1619C
:101EC0006565012084F85100002070BD003001409C
:101ED000003800402E2E2F447269766572732F539E
:101EE000544D3332463178785F48414C5F447269D3
:101EF0007665722F5372632F73746D333266317847
:101F0000785F68616C5F7370695F65782E6300004D
:101F100030B585B0002400940194029403940068C5
:101F20001449884223D11448816941F48051816168
:101F3000816901F480510491816941F0040181615A
:101F400080690E4D00F004000490A0200090022053
:101F500001900320039069462846FEF797FD402034
:101F6000CDE90004694628460294FEF78FFD05B0CE
:101F700030BD000000300140001002400008014068
:101F80002DE9F84F04460A9F80689A4693460D460D
:101F90004FF00108002620B140F2413172A001F05B
:101FA00030FC94F8500001280ED0012084F8500035
:101FB000FEF78EFF814694F85100616801280CD02D
:101FC000B1F5827F07D102E00220BDE8F88FA16859
:101FD00009B9042801D00226BEE055B1BBF1000FBB
:101FE00007D0BAF1000F04D094F85100012802D0B4
:101FF00004E00126B0E0052084F85100002060656F
:10200000C4F838B0A4F83EA0A4F83CA02563A4F816
:1020100036A0A4F834A020646064206801684906F2
:1020200003D4016841F040010160E068B0F5006F41
:10203000606804D0F0B3E08E01283CD06BE010B1B2
:10204000E08E01282FD1216835F8020BC860E08EA0
:10205000401EE08627E000BFB8F1000F0DD0E08EF3
:1020600058B120688168890707D535F8021BC1601F
:10207000E08E401EE0864FF00008E08F58B12068E7
:102080008168C90707D0C0682BF8020BE08F401E9B
:10209000E0874FF00108781C05D0FEF719FFA0EB90
:1020A0000900B84246D2E08E0028D5D1E08F002842
:1020B000D2D136E0FFE7216815F8010B0873E08EF6
:1020C000401EE08627E000BFB8F1000F0DD0E08E83
:1020D00058B120688168890707D515F8011B01737D
:1020E000E08E401EE0864FF00008E08F58B1206877
:1020F0008168C90707D0C0680BF8010BE08F401E4C
:10210000E0874FF00108781C05D0FEF7E1FEA0EB58
:102110000900B8420ED2E08E0028D5D1E08F002809
:10212000D2D13B46012202212046CDF8009000F09A
:10213000D5FC08B103260FE04A463946204600F098
:10214000ACFC18B101262020606505E0A06818B934
:102150002068C16880680090012084F85100002048
:1021600084F85000304630E72E2E2F447269766591
:1021700072732F53544D3332463178785F48414C57
:102180005F4472697665722F5372632F73746D3377
:1021900032663178785F68616C5F7370692E6300B6
:1021A0007047704710B5040036D025492068884232
:1021B0000CD0B0F1804F09D02249884206D0224984
:1021C000884203D0D92121A001F01BFBA06858B19F
:1021D000102809D0202807D0402805D0602803D037
:1021E000DA211AA001F00DFB206948B1B0F5807F1B
:1021F00006D0B0F5007F03D0DB2114A001F001FB75
:10220000A06928B1802803D0DC2110A001F0F9FAE0
:1022100094F83D0010B107E0012010BD002084F8C3
:102220003C00204600F02EF8022084F83D00211DDD
:10223000206800F0FFFC012084F83D00002010BD64
:10224000002C014000040040000800402E2E2F44C6
:102250007269766572732F53544D333246317878F4
:102260005F48414C5F4472697665722F5372632FE9
:1022700073746D3332663178785F68616C5F74694E
:102280006D2E63007047000010B5044600680E49CB
:1022900088420DD0B0F1804F0AD00C49884207D057
:1022A0000B49884204D040F261110AA001F0A9FA5A
:1022B0002068C16841F00101C1602068016841F0F7
:1022C00001010160002010BD002C0140000400400D
:1022D000000800402E2E2F447269766572732F53CA
:1022E000544D3332463178785F48414C5F447269CF
:1022F0007665722F5372632F73746D333266317843
:10230000785F68616C5F74696D2E6300704770B5AB
:102310000446006801694FF00005C943890715D4D8
:10232000C168C943890711D4E91E016101202077E2
:10233000206880698007204602D0FFF7E7FF04E0AD
:1023400000F098F8204600F096F82577206801699B
:10235000C943490717D4C168C943490713D46FF06B
:1023600004010161022020772068806910F4407F19
:10237000204602D0FFF7CAFF04E000F07BF82046B9
:1023800000F079F8257720680169C943090716D458
:10239000C168C943090712D46FF008010161042024
:1023A00020772068C0698007204602D0FFF7AEFF83
:1023B00004E000F05FF8204600F05DF82577206823
:1023C0000169C943C90617D4C168C943C90613D4F2
:1023D0006FF010010161082020772068C06910F4B7
:1023E000407F204602D0FFF791FF04E000F042F862
:1023F000204600F040F8257720680169C943C907E5
:1024000008D1C168C943C90704D1891E01612046AA
:1024100000F032F820680169C943090609D4C1688F
:10242000C943090605D46FF0800101612046FFF71A
:10243000B7FE20680169C943490609D4C168C94388
:10244000490605D46FF040010161204600F02EF8E6
:1024500020680169C94389060BD4C168C94389064C
:1024600007D46FF0200101612046BDE87040FFF7FE
:1024700098BE70BD7047704770B504460068094D3E
:10248000A84201D1FEF736FF2068A84209D10648CC
:102490000168491CA1F51C520160103A01D10121CB
:1024A000016070BD002C014030000020704700002A
:1024B00070B5040020D0A06930490028304A314B63
:1024C00020681BD088420AD0904208D0984206D09B
:1024D00040F20F112CA001F094F9A069C8B1A069D5
:1024E000B0F5807F15D0B0F5007F12D0B0F5407FF9
:1024F0000FD04FF4887109E0012070BD884208D0E8
:10250000904206D0984204D04FF48A711EA001F088
:1025100078F9A06838B1B0F5805F04D04FF48B71C2
:1025200019A001F06EF994F83900002520B984F85B
:102530003850204600F046F8242084F839002068FE
:10254000C16821F40051C160204600F0A9FB206859
:10255000016921F4904101612068416921F02A015B
:1025600041612068C16841F40051C160E5632020E9
:1025700084F8390084F83A00002070BD003801402A
:1025800000440040004800402E2E2F4472697665BA
:1025900072732F53544D3332463178785F48414C33
:1025A0005F4472697665722F5372632F73746D3353
:1025B00032663178785F68616C5F756172742E6322
:1025C0000000000030B585B000240094019402940E
:1025D000039400681449884224D11448816941F465
:1025E00080418161816901F480410491816941F0F8
:1025F0000401816180690E4D00F0040004904FF4E5
:102600000070009002200190032003906946284644
:10261000FEF73CFA2815CDE90004694628460294E5
:10262000FEF734FA05B030BD00380140001002401A
:10263000000801402DE9F843044690F839001F4690
:1026400016460D46202850D1A5B19EB194F8380009
:1026500001284AD0012084F838004FF00008C4F85F
:102660003C80212084F83900FEF732FCA6848146A4
:10267000E68426E00120BDE8F883E08C401EE0847B
:10268000A0684B46B0F5805F4FF000024FF080012C
:102690002046009703D000F007FCE8B90DE000F0F9
:1026A00003FCC8B928882168C0F308004860206985
:1026B00008B16D1C05E0AD1C03E0216815F8010BA5
:1026C0004860E08C0028D8D14B46002240212046AB
:1026D000009700F0E9FB08B10320CCE7202084F844
:1026E000390084F838800020C5E70220C3E7FEE700
:1026F00001684A69D24352050CD46FF480624A6182
:1027000004210164002140F8301F2022427301732C
:1027100001207047002070472DE9F8430446006807
:102720000D46DDE9089701689846164641F4807128
:1027300001604B4600224FF001112046009700F047
:1027400062F8E8B9216805F0FE0008613B464A4698
:102750001849204600F088F828B1206C04280FD1D1
:102760000120BDE8F88320684169806900903A46FD
:102770004946204600F0BCF820B1206C042813D054
:102780000320EEE7F5B2B8F1010F09D02168300A55
:1027900008613A464946204600F0AAF80028ECD1E4
:1027A000206805610020DCE72068016841F40071C1
:1027B0000160D5E70200010070B516460D460446DB
:1027C0001AE02046FFF794FF08B1012070BD681C95
:1027D00012D025B1FEF77CFB801BA8420CD954F81F
:1027E000400F40F0200044F8100900202060202114
:1027F00061732073032070BD20684069C0434007A7
:10280000DFD4002070BD2DE9F0471E4690460D46EE
:102810000446C1F30747DDF8209012E0701C10D089
:102820002EB1FEF755FBA0EB0900B04209D90020FC
:1028300044F8300F20216173A07320730320BDE89A
:10284000F0872068012F0AD0806925EA0000000483
:10285000000C06D000214145E0D00020EFE74069A0
:10286000F3E70121F7E700002DE9F0479A4691468A
:102870000D46044600264FF02008C1F307472AE022
:1028800020684069C043400512D42068016841F4C3
:102890000071016021686FF4806048610420206449
:1028A000266384F83D8084F83C600120BDE8F08711
:1028B000B9F1FF3F0FD0B9F1000F05D0FEF708FBCB
:1028C000A0EB0A01494506D944F8306F84F80D8021
:1028D00026730320EAE72068012F07D0D0F81800FC
:1028E00025EA00000004000CE0D0C9E74069F7E7E2
:1028F00070B516460D4604461AE02046FFF7F8FE6E
:1029000008B1012070BD681C12D025B1FEF7E0FAB5
:10291000801BA8420CD954F8400F40F0200044F826
:10292000100900202060202161732073032070BDF6
:1029300020684069C0430006DFD4002070BD00005D
:10294000F0B585B0002439480094019402940394B2
:10295000816941F010018161816901F010010491E8
:10296000816941F020018161816901F020010491B8
:10297000816941F004018161816901F004010491E0
:10298000816941F0080181618069294D00F00800EA
:102990004FF400560490002231462846FEF762FAB2
:1029A000244F012210213846FEF75CFA00224FF432
:1029B000C0513846FEF756FA0220CDE90240009693
:1029C0000126694601962846FEF760F848F207108E
:1029D0000325CDE9000569463846FEF757F808207B
:1029E000CDE90004694638460294FEF74FF841F6F7
:1029F0001000CDE9000669463846CDE90245FEF7EC
:102A000045F848F63F70CDE900050B4D694628466C
:102A1000FEF73CF84FF4E040CDE900046946284653
:102A20000294FEF733F805B0F0BD0000001002403C
:102A30000010014000080140000C01400C480B4907
:102A4000012201604FF48271416000218160C16008
:102A5000C0E90412520282611822C0E907214162D2
:102A600081620A21C162FFF78FB900000030014086
:102A700004060020FEE770470907090E002806DA61
:102A800000F00F0000F1E02080F8141D704700F105
:102A9000E02080F800147047704738B50B4600926C
:102AA00004460022802100F019F8002804D0606D4F
:102AB00040F020006065032038BD00000EB5012302
:102AC0008DF804006420009002AA01A90248FFF7D3
:102AD00057FA9DF808000EBD040600202DE9F041CC
:102AE0001D4617460E460446DDF8188035E0681C82
:102AF00033D02DB1FEF7ECF9A0EB0800A8422CD39F
:102B00002068416821F0E00141606068B0F5827F93
:102B10000BD1A068B0F5004F02D0B0F5806F04D1A2
:102B20002068016821F040010160A06AB0F5005FF3
:102B30000AD1206801684DF6FF72114001602068DB
:102B4000016841F400510160012084F85100002027
:102B500084F850000320BDE8F0812068806836EAE0
:102B6000000004D00020B842C1D10020F3E70120CA
:102B7000F9E7704710B5002100EBC1040022C4E959
:102B80000022491C1B29F7DB0021C0F8D81010BD1A
:102B900030B58FB028216846FDF7EDFA14210AA858
:102BA000FDF7E9FA01210804CDE9001000240294A0
:102BB00002250491CDE907504FF4E01009906846D2
:102BC000FEF7A4FE0F20CDE90A056802CDE90C400E
:102BD00002210AA80E94FEF7BFFC0FB030BD000022
:102BE0000D48016841F00101016041680B4A114044
:102BF000416001680A4A11400160016821F48021A6
:102C00000160416821F4FE0141604FF41F018160C1
:102C10000449C00308607047001002400000FFF83C
:102C2000FFFFF6FE08ED00E00148FFF770BB000073
:102C30009C060020F0B50268164B174C174D4FF05C
:102C40008047984205D0B84203D0A04201D0A842A4
:102C500003D122F070064A683243984205D0B84248
:102C600003D0A04201D0A84203D122F44074CA6824
:102C7000224322F080044A69224302608A68C262C9
:102C80000A688262984201D10969016301214161A8
:102C9000F0BD0000002C014000040040000800408E
:102CA0002DE9F041044640686E49884204D340F65D
:102CB000A7116DA000F0A5FDE06838B1B0F5005F88
:102CC00004D040F6A81168A000F09BFD206950B127
:102CD000B0F5806F07D0B0F5C06F04D040F6A911F1
:102CE00061A000F08EFD60694FF6F371084200D1DB
:102CF00020B940F6AA115CA000F083FD20680169AC
:102D0000E26821F44051114301612169A068084340
:102D1000616908432168CA6841F20C639A4302431F
:102D2000CA6020684169A26921F440711143416180
:102D30005C4920686425322688423CD1FEF7A0FD1C
:102D400000EBC00101EB001061688900B0FBF1F7F6
:102D5000FEF796FD00EBC00101EB00106168B04684
:102D60008900B0FBF1F0B0FBF5F06FF018014843BB
:102D700007EB800106EB0110B0FBF5F000F0F00668
:102D8000FEF77EFD00EBC00101EB001061688900D9
:102D9000B0FBF1F0B0FBF5F006EB0016FEF770FDAE
:102DA00000EBC00101EB001061688900B0FBF1F796
:102DB000FEF766FD3BE0FEF753FD00EBC00101EBC3
:102DC000001061688900B0FBF1F7FEF749FD00EBE8
:102DD000C00101EB00106168B0468900B0FBF1F062
:102DE000B0FBF5F06FF01801484307EB800106EBEC
:102DF0000110B0FBF5F000F0F006FEF731FD00EB3E
:102E0000C00101EB001061688900B0FBF1F0B0FB7C
:102E1000F5F006EB0016FEF723FD00EBC00101EB19
:102E2000001061688900B0FBF1F7FEF719FD00EBB7
:102E3000C00101EB001061688900B0FBF1F0B0FB4C
:102E4000F5F06FF01801484307EB800108EB011023
:102E5000B0FBF5F0216800F00F0030448860BDE859
:102E6000F081000021AA44002E2E2F44726976655D
:102E700072732F53544D3332463178785F48414C4A
:102E80005F4472697665722F5372632F73746D336A
:102E900032663178785F68616C5F756172742E6339
:102EA00000000000003801402DE9F0419846174627
:102EB0000E460446069D1DE0681C1BD02DB1FEF792
:102EC00007F8A0EB0800A84214D92068C16821F4D3
:102ED000D071C1602068416921F001014161202069
:102EE00084F8390084F83A00002084F83800032080
:102EF000BDE8F0812068006836EA000004D00020B8
:102F0000B842D9D00020F3E70120F9E7FEE700003E
:102F10000FB4054B10B503A9044A029800F0DAF883
:102F200010BC5DF814FB00000538000844000020C8
:102F300002E008C8121F08C1002AFAD17047704782
:102F4000002001E001C1121F002AFBD170470000E0
:102F50002DE9FF5F82B00021DDE90430020DDDF8CC
:102F600040B0034318D044F61050A2F2FF3242435F
:102F70001514119801281FD0A5EB0B00401C5FEA27
:102F8000000A4FF000064E4FDFF83891B046504629
:102F900015D5CAF1000413E0119801244AA30128B1
:102FA00001D16FEA0B010298119AC0E90031C0E922
:102FB000024206B0BDE8F09FCBF10000DFE7044617
:102FC0000021404A491842EB0450CDE9001012E0BC
:102FD000E00707D032463B4640464946FDF77DF9BB
:102FE0008046894632463B4610461946FDF775F93C
:102FF00006460F466410002CEAD1DDE90401DDE944
:103000000023BAF1000F06DAFDF767F942464B4696
:10301000FDF763F905E0FDF7D2F942464B46FDF7AF
:10302000CEF904460E460022284BFDF78BFB03D851
:103030004FF0FF30014607E00022254B2046314685
:10304000FDF7A4F8FDF766FB102409E0002C0ADB6D
:103050000A220023FDF778FA039B30321A55641ECA
:1030600050EA0102F2D1641C039AC4F11103144422
:10307000119A012A03D0012208430DD10AE0084326
:1030800004D000204FF0110B119072E7A3EB0B0559
:103090006D1E0DE05B4504DD4FF0000205F10105FA
:1030A00004E003DA4FF00002A5F10105002AECD09C
:1030B00002981199C0E90231C0E9004579E70000A2
:1030C000000014400000F03F300000000000F0431A
:1030D0000000E03F2DE9FF4F95B09B46894606462C
:1030E00000250FE2252877D100242746F84A012140
:1030F000059400E0044316F8013F203B01FA03F079
:103100001042F7D130782A2811D06FF02F03307891
:10311000A0F13002092A16D8059A44F0020402EB05
:10312000820203EB42021044761C0590EFE759F847
:10313000042B0592002A03DA504244F4005405900F
:1031400044F00204761C30782E2816D116F8010FB0
:1031500044F004042A280DD06FF02F023078A0F13B
:103160003003092B09D807EB870302EB4303C71889
:10317000761CF3E759F8047B761C30786C280FD066
:1031800006DC4C2817D068280DD06A2814D104E03A
:10319000742810D07A280FD10DE044F400140AE00E
:1031A00044F4801401E044F440147278824202D165
:1031B00004F58014761C761C307866280BD013DC5E
:1031C000582877D009DC002875D04528F6D0462845
:1031D000F4D047281AD19DE118E0632835D064283F
:1031E00079D0652812D195E1702873D008DC672862
:1031F000F1D069286FD06E280DD06F2806D1B5E0C8
:1032000073282CD0752875D0782874D05A46179911
:1032100090476D1C75E1C4F30250022809D00328C1
:103220000DD0D9F8001004280DD00D6009F1040963
:1032300067E1D9F80010EA17C1E90052F6E7D9F8BA
:1032400000100D80F2E70D70F0E719F8041B8DF8FF
:10325000001000208DF80100EA46012003E059F833
:1032600004AB4FF0FF3061074FF0000102D40DE0D6
:1032700008F101018846B9420FDA8045F8DB1AF8F7
:1032800008100029F4D108E008F1010188468142C4
:10329000FADB1AF808100029F6D105985B46A0EB76
:1032A000080721463846179A00F094FA284400EBA4
:1032B000080507E04DE029E10DE01AF8010B5A4638
:1032C00017999047B8F10108F7D25B462146384676
:1032D000179A13E142E00A220092C4F302524FF01F
:1032E000000A022A08D059F804CB032A4FEAEC71ED
:1032F0000AD00DE029E02AE009F1070121F00702D8
:10330000F2E802C1914609E00FFA8CFC4FEAEC7139
:10331000042A03D14FFA8CFC4FEAEC71002907DA3A
:103320000A460021DCF1000C61EB02012D2202E0D3
:10333000220504D52B228DF80420012203E0E207A8
:1033400001D02022F7E7904659E00A2102E010223E
:103350000DE010214FF0000A00910BE010224FF019
:10336000000A44F004040827009203E008224FF00A
:10337000000A0092C4F30252022A05D059F804CB85
:103380000021032A08D009E009F1070121F0070212
:10339000F2E802C1914605E01FFA8CFC042A01D133
:1033A0000CF0FF0C4FF00008220728D5702806D03B
:1033B000009B83F0100353EA0A0305D00EE040227D
:1033C0008DF80420012208E05CEA010206D03022D8
:1033D0008DF804208DF8050002229046009B83F0B2
:1033E000080353EA0A030AD15CEA010201D1620729
:1033F00005D530228DF804204FF001087F1E582893
:1034000004D034A003900EA802900DE036A0F9E796
:1034100053466046009AFDF797F884460398825C0D
:103420000298401E029002705CEA0100F0D10298FE
:1034300006A9081A00F1200A600702D524F4803496
:1034400000E00127574502DDA7EB0A0000E000205D
:1034500000EB0A01009005984144401A0590E003F2
:1034600006D45B462146179A059800F0B3F9054447
:10347000002706E001A85A46C05D179990476D1CC9
:103480007F1C4745F6DBE0030CD55B462146179AC7
:10349000059800F09FF9054404E030205A4617993A
:1034A00090476D1C0099481E00900029F5DC08E04B
:1034B000029802995A460078491C02911799904740
:1034C0006D1CBAF10001AAF1010AF1DC65E100000E
:1034D00009280100303132333435363738396162EA
:1034E00063646566000000003031323334353637AE
:1034F00038394142434445460000000000F058F985
:103500000544761C307800287FF4ECAD19B02846CD
:10351000BDE8F08F620700D4062709F1070222F008
:10352000070CFCE80223E14603F000485FEA080CC0
:1035300002D00FF2702C0DE05FEA045C02D50FF2AE
:10354000682C07E05FEAC47C02D00FF2602C01E037
:10355000AFF2700C4FF0FF3823F00043CDF850C0AD
:1035600065280CD006DC452809D046281DD0472800
:103570003DD13DE0662818D067287ED138E0002193
:10358000112F01DB112000E0781CCDE9000106A914
:103590000EA8FFF7DDFCDDE90F010E9A0391002173
:1035A000009207F1010A04914DE04FF000400097AE
:1035B000CDE9011006A90EA8FFF7CAFCDDE90F024C
:1035C00003920E9B11990022DDF80CA00093049247
:1035D00011B9791C00EB010AB7EB0A0004D4C0F161
:1035E000FF3007F1010A0490AAEB0700019044E0C4
:1035F000012F00DA01270021112F01DD112000E049
:103600003846CDE9000106A90EA8FFF7A1FCDDE9C7
:103610000F010E9A0391002104910092BA462107EE
:103620000CD40399514500DA8A46BAF1010F05DD41
:10363000009AAAF10101515C302908D0B84202DA9F
:1036400010F1040F06DA0121CDE9011015E0AAF10D
:103650000101E9E7002805DC049901440491AAEB83
:10366000000102E0411C514500DD8A460499401AE0
:10367000401C01904FF000400290200704D40198B4
:10368000504501DBCDF8048000208DF84F000298F2
:103690000DF14F07B0F1004F25D02B200E9002986E
:1036A0004FF0020800280CDA404202902D200E90C4
:1036B00007E00A210298FCF731FF3031029007F849
:1036C000011DB8F10001A8F10108F2DC0298002800
:1036D000EFD1791E0E980870307800F0200040F08D
:1036E000450007F8020D12A8C01B00F10708149846
:1036F000007800B1012000EB0A01019801EBE071B4
:1037000005984144401A401E0590E00306D45B46EC
:103710002146179A059800F05DF805441498007842
:1037200018B15A46179990476D1CE00324D55B46A3
:103730002146179A059800F04DF805441CE00498BE
:10374000002807DBDDE90301884203DD0098405CC7
:10375000179901E0179930205A469047049805F1CF
:103760000105401C04900198401E019004D12E20B8
:103770005A46179990476D1CBAF10001AAF1010A47
:10378000DDDC05E017F8010B5A46179990476D1CD0
:10379000B8F10001A8F10108F4DC5B462146179A54
:1037A0000598ABE62D0000002B0000002000000073
:1037B0002DE9F041044600251E461746880404D42E
:1037C00005E039462020B0476D1C641EF9D5284617
:1037D000BDE8F0812DE9F041044600251E469046E3
:1037E000C80301D5302700E02027880404D505E070
:1037F00041463846B0476D1C641EF9D52846BDE8E1
:10380000F081704713B56423012269460248FEF730
:1038100011FF00981CBD00005C06002010B50B4C89
:10382000A168B0FBF1F201FB120000280DD1FCF7FA
:10383000DFFFFDF713F8E060FCF741FE0246BDE84C
:1038400010400B4602A0FFF763BB10BD0000002034
:1038500061646320696E206D696C69766F6C746158
:1038600067653A2025660D0A0000000070B500F07B
:103870009DF9002000F08AF920210A2000F0F8F9D3
:10388000514D012351A0D5E9001200F07FFA00F05C
:10389000F5F9524C0820102184F864005048206645
:1038A00084F85C10A06536224E492046FCF74AFC9D
:1038B0004C4EF08EE086B06BA063B08FA087F08F87
:1038C000E087112206F1400104F14000FCF73AFCC8
:1038D00096F8510084F85100706D6065002000F08A
:1038E00055F920210A2000F0C3F9D5E9001201237F
:1038F0003DA000F04BFA00F0C1F9FCF7CBFFC0206F
:10390000FDF772F80E20FDF77BF80020FDF760F858
:10391000FCF7A0FF4FF47A742046FDF7A5F80020CD
:1039200000F034F920210A2000F0A2F9D5E90012B4
:10393000012332A000F02AFA00F0A0F93448FFF782
:1039400019F920210A2000F093F9D5E9001201238A
:1039500030A000F01BFA00F091F96420FDF784F824
:10396000002000F013F920210A2000F081F9D5E9A8
:10397000001201232CA000F009FA00F07FF9204684
:10398000FDF772F8002000F001F90521084600F06B
:103990006FF9D5E90012012326A000F0F7F93221D2
:1039A000012000F065F9D5E90012012326A000F0FE
:1039B000EDF9D5E90012012326A000F0E7F9BDE8F2
:1039C000704000F05BB90000200000205374726169
:1039D0007274696E672E2E2E0000000028010020F0
:1039E00000080140040600205374617274696E6718
:1039F000204144532E2E2E2E00000000537461727D
:103A000074696E672046696C7465722E2E2E2E00C6
:103A1000480000204C6F6164206275666665722EF6
:103A20002E2E2E2E2E000000416C6C20646F6E65D1
:103A3000210000004C6F616463656C6C206D696CE3
:103A400069766F6C3A0000005350533A3130303091
:103A5000200000004761696E3A31323800000000F2
:103A60000A4910B50968B0FBF1F201FB1200002809
:103A70000BD1074C4FF400612046FDF7C7F9A114A4
:103A80002046BDE81040FDF7C1B910BD0000002080
:103A900000080140FDF736FCFFF77AF8FEF750FF0B
:103AA00015481449002401604FF4E131C0E90114C4
:103AB0000C21C460C0E904418461C461FEF7F8FCD4
:103AC000FEF7BCFF0C480D49AC3801600C49C0E959
:103AD00001144FF48041C0E9034144618461C46131
:103AE0000462FDF7FBF9FFF7C1FE064C206800F009
:103AF0000BF8FBE7003801405C0600200054004052
:103B0000A08601003000002010B50446FFF786FEB5
:103B10002046BDE81040FFF7A3BF00001FB505A376
:103B20000FCB8DE80F006423102269460548FEF78D
:103B300081FD1FBD4144533132323020696E6974BA
:103B4000200D0A005C06002070B5842815D240299B
:103B500013D20C4B012401F00705AC401E79C908B3
:103B6000094B01EB411100EB81000EB132B101E0D4
:103B7000012A03D0195CA143195470BD195C21437B
:103B8000FAE70000280000209001002010B5064A46
:103B900000214FF4846328B1FF245454491C9942F6
:103BA000F9D310BD0024F8E79001002010B564207F
:103BB000FCF75AFFAE2000F0D7F8202000F0D4F830
:103BC000102000F0D1F8B02000F0CEF8C82000F0AE
:103BD000CBF8002000F0C8F8102000F0C5F8402015
:103BE00000F0C2F8A12000F0BFF8A62000F0BCF859
:103BF000A82000F0B9F83F2000F0B6F8A42000F0AB
:103C0000B3F8D32000F0B0F8002000F0ADF8D520D4
:103C100000F0AAF8F02000F0A7F8D92000F0A4F8EE
:103C2000222000F0A1F8DA2000F09EF8122000F027
:103C30009BF8DB2000F098F8202000F095F88D200C
:103C400000F092F8142000F08FF8AF2000F08CF80C
:103C50000020FFF79BFF00F011F8044802210180CB
:103C6000418001214171084610BD0000280000205C
:103C7000014A10805180704728000020FEB50024C2
:103C80006425104F842600BF04F1B000C0B200F0DC
:103C90006BF8002000F068F8102000F065F804EBE5
:103CA000441007EB8000CDE9000601234022782173
:103CB00002950548FDF72EFA641CE4B2082CE3D304
:103CC000FEBD000090010020B00500202DE9FF4F4F
:103CD000834624489246CEB202883244842A06D2D1
:103CE00081464088C1F307273844402803D3002089
:103CF00004B0BDE8F08F002528E000BFABF1200044
:103D000000FB075000243AF810801CE008FA04F089
:103D1000000409D599F8021099F8000029442044BC
:103D2000C9B2C0B2039A0BE00398C0B15FF00002C1
:103D300099F8021099F8000029442044C9B2C0B291
:103D4000FFF702FF641CA642E0D86D1CAF42D5D835
:103D5000B9F8001058463144A9F80010C8E701220C
:103D6000E6E700002800002001B584B001210A2206
:103D700004A88DE807000B46002278210248FDF7D1
:103D8000C9F905B000BD0000B0050020F0B51D4622
:103D90000E46174604460AE02B463A463146FFF7E0
:103DA00095FF2178884201D0C8B2F0BD641C20780C
:103DB0000028F1D1C0B2F0BD0000000000000000FA
:103DC00000000000000000000000000000100010D3
:103DD0000010001000100010000000100000000093
:103DE000002800280028000000000000000000005B
:103DF0000000000000240024007C00240048007C17
:103E0000004800480000000000380054005000380E
:103E1000001400540054003800100000002000542A
:103E20000058003000280054001400080000000072
:103E3000001000280028001000340048004800341A
:103E40000000000000100010001000000000000042
:103E5000000000000000000000080010002000200A
:103E6000002000200020002000100008002000108A
:103E700000080008000800080008000800100020E2
:103E800000100038001000280000000000000000B2
:103E9000000000000000000000100010007C001076
:103EA0000010000000000000000000000000000002
:103EB00000000000000000100010001000000000D2
:103EC00000000000000000380000000000000000BA
:103ED00000000000000000000000000000000010D2
:103EE0000000000000080008001000100010001082
:103EF000002000200000000000380044004400546E
:103F0000004400440044003800000000001000306D
:103F10000050001000100010001000100000000001
:103F20000038004400440004000800100020007C19
:103F300000000000003800440004001800040004E1
:103F40000044003800000000000800180028002885
:103F50000048007C0008000800000000007C0040D1
:103F60000040007800040004004400380000000015
:103F70000038004400400078004400440044003809
:103F800000000000007C0004000800100010002069
:103F900000200020000000000038004400440038E9
:103FA0000044004400440038000000000038004491
:103FB00000440044003C00040044003800000000BD
:103FC00000000000001000000000000000000010D1
:103FD00000000000000000000000001000000000D1
:103FE000000000100010001000000000000C003065
:103FF00000400030000C0000000000000000000045
:104000000000007C0000007C0000000000000000B8
:1040100000000000006000180004001800600000AC
:1040200000000000003800440004000800100010E8
:10403000000000100000000000380044004C005454
:10404000005C004000400038000000000010002824
:10405000002800280028007C0044004400000000E4
:104060000078004400440078004400440044007894
:1040700000000000003800440040004000400040C4
:104080000044003800000000007000480044004474
:10409000004400440048007000000000007C004024
:1040A0000040007C004000400040007C0000000018
:1040B000007C00400040007800400040004000408C
:1040C000000000000038004400400040005C004454
:1040D0000044003800000000004400440044007C1C
:1040E0000044004400440044000000000038001078
:1040F0000010001000100010001000380000000038
:10410000000400040004000400040004004400381B
:1041100000000000004400480050006000500048CB
:104120000048004400000000004000400040004003
:10413000004000400040007C000000000044006C93
:10414000006C00540044004400440044000000009F
:1041500000440064006400540054004C004C0044CF
:1041600000000000003800440044004400440044C3
:10417000004400380000000000780044004400447F
:10418000007800400040004000000000003800447B
:10419000004400440044004400540038000400007F
:1041A000007800440044004400780048004800447F
:1041B0000000000000380044004000300008000407
:1041C0000044003800000000007C001000100010C7
:1041D0000010001000100010000000000044004417
:1041E0000044004400440044004400380000000043
:1041F000004400440044002800280028001000105B
:104200000000000000440044005400540054006CBE
:1042100000280028000000000044002800280010AA
:104220000010002800280044000000000044004462
:1042300000280028001000100010001000000000EE
:10424000007C000400080010001000200040007CEA
:1042500000000000001800100010001000100010F6
:1042600000100010001000180020002000100010A6
:1042700000100010000800080000000000300010CE
:10428000001000100010001000100010001000308E
:10429000001000280028004400000000000000007A
:1042A000000000000000000000000000000000000E
:1042B00000000000000000FE0020001000000000D0
:1042C00000000000000000000000000000000000EE
:1042D00000380044003C0044004C00340000000062
:1042E000004000400058006400440044006400584E
:1042F00000000000000000000038004400400040C2
:104300000044003800000000000400040034004CA9
:1043100000440044004C0034000000000000000095
:1043200000380044007C00400044003800000000D9
:10433000000C0010007C0010001000100010001095
:1043400000000000000000000034004C0044004465
:10435000004C003400040078004000400058006425
:10436000004400440044004400000000001000002D
:10437000007000100010001000100010000000007D
:10438000001000000070001000100010001000105D
:10439000001000E000400040004800500060005065
:1043A00000480044000000000070001000100010E1
:1043B00000100010001000100000000000000000BD
:1043C00000780054005400540054005400000000D1
:1043D0000000000000580064004400440044004411
:1043E00000000000000000000038004400440044C9
:1043F0000044003800000000000000000058006485
:1044000000440044006400580040004000000000E8
:104410000034004C00440044004C0034000400040C
:1044200000000000005800640040004000400040D0
:1044300000000000000000000038004400300008C8
:104440000044003800000000002000200078002018
:1044500000200020002000180000000000000000E4
:104460000044004400440044004C003400000000BC
:10447000000000000044004400280028002800102C
:104480000000000000000000005400540054006CC4
:104490000028002800000000000000000044002860
:1044A0000010001000280044000000000000000080
:1044B0000044004400280028001000100010006094
:1044C00000000000007C0008001000200040007C7C
:1044D0000000000000180010001000100020002054
:1044E0000010001000100018001000100010001044
:1044F000001000100010001000100010003000101C
:10450000001000100008000800100010001000301B
:104510000000000000000074004C000000000000DB
:104520000000000000000000000000000102030481
:104530000607080900000000010203045C450008AA
:104540000000002048000000302F0008A4450008AB
:1045500048000020980E0000402F00086400000072
:10456000F401000001000000000000000000000055
:10457000000000000000000000000000070A00002A
:10458000B83D00080000000000000000000000002E
:1045900001000000100000000000000000A24A041A
:0445A0000000000017
:04000005080000ED02
:00000001FF
