:020000040800F2
:100000001010002001010008AB3000080F2D00087F
:10001000A9300008490D000825350008000000003F
:10002000000000000000000000000000A7310008F0
:10003000650D000800000000CD300008190100081F
:100040001B0100081B0100081B0100081B01000820
:100050001B0100081B0100081B0100081B01000810
:100060001B0100081B0100081B0100081B01000800
:100070004D0D0008590D00081B0100081B01000868
:100080001B0100081B0100081B0100081B010008E0
:100090001B0100081B0100081B0100081B010008D0
:1000A0001B010008413200081B0100081B01000869
:1000B0001B0100081B0100081B0100081B010008B0
:1000C0001B0100081B0100081B0100081B010008A0
:1000D0001B0100081B0100081B0100081B01000890
:1000E000670D00081B0100081B010008DFF80CD099
:1000F00000F04CFC004800473D450008101000206F
:100100000648804706480047FEE7FEE7FEE7FEE7B1
:10011000FEE7FEE7FEE7FEE7FEE7FEE7F93100084F
:10012000ED000008202A04DB203A21FA02F0002129
:10013000704721FA02F3D040C2F1200291400843F7
:100140001946704740EA01039B0703D009E008C93C
:10015000121F08C0042AFAD203E011F8013B00F88C
:10016000013B521EF9D27047D2B201E000F8012BD8
:10017000491EFBD270470022F6E710B513460A4627
:1001800004461946FFF7F0FF204610BDF0B480EAA0
:100190000102D40F4200B2EB410F02D202460846E0
:1001A00011464A0042D0C30DDDB2C1F3C752AD1AA9
:1001B000202D35DAC1F3160141F4000204B1524298
:1001C000C5F1200602FA06F12A411044B3EBD05FD4
:1001D00023D0C4B1012DA0EBC35009DCF0BC4FF01B
:1001E000004202EAC352DBB200F5000000F0FBBAA5
:1001F000400000F1807000EBC350A0F1807040EA35
:10020000D170490009E0490841EAC071A0EBC35030
:1002100000F50000400800EBC350F0BC00F0DABA73
:100220006142012202EB4101001BF6E7F0BC70477E
:1002300081F00041AAE780F00040A7E780EA0102D0
:1002400010B502F00043400022D04A001FD0010E3A
:1002500001EB1261C0F35600C2F3560240F40000F5
:1002600042F40002A0FB022000047F39140400D0F5
:10027000401C50EA124001D44000491EC2B20C0694
:1002800004EBD010401C4008802A02D003E000207C
:1002900010BD20F00100002900DA0020184310BD35
:1002A00030B480EA010202F0004530F0004221F053
:1002B000004013D090B1C30DD40DC2F31601C0F3AA
:1002C0001600E41A41F4000140F400027D3491422A
:1002D00001D3641C00E04900002C02DA30BC00208D
:1002E00070474FF400000023914201D3891A034361
:1002F00040084FEA4101F7D151B1914202D14FF08C
:10030000004105E002D24FF0010101E06FF0010170
:1003100003EBC450284430BC00F05CBA2DE9FE4F1A
:10032000804681EA0300C00F0C46009021F0004196
:1003300023F00045B8EB0200A94105D24046214612
:1003400090461C460B46024623F00040104347D01F
:10035000270DC7F30A00C3F30A510290401A019017
:1003600040286BDAC3F3130040F4801B00989246D8
:1003700020B10023D2EB030A63EB0B0B0198594623
:10038000C0F14002504600F004FA06460D465046C1
:100390005946019A00F00CFA10EB08006141002464
:1003A00087EA115284EAE7731A4340D0009A62B395
:1003B000019A012A4FEA075215DC001B61EB02018A
:1003C0004FF0004202EA0752CDE90042001C41F51D
:1003D000801132462B4600F043FA03B0BDE8F08F9F
:1003E00040462146F9E7001B61EB0201001C41F584
:1003F000801300185B412018A2F5001747EB03019A
:1004000040EAD570B6196D4111E06D084FEA360625
:1004100045EAC0754FEA0752001B61EB0201001C60
:1004200041F5801149084FEA300000195141324628
:100430002B4603B0BDE8F04F00F003BA009801224C
:1004400040000023D0EB020263EBE07300982146EA
:100450004FEAE074B8EB000061EB0401E9E783F0D8
:1004600000435BE781F0004158E72DE9FE4F81EA48
:10047000030404F0004421F0004100944FF0000B0D
:1004800023F0004350EA01045ED052EA03045BD03B
:10049000C3F30A54C1F30A552C44A4F2F334019473
:1004A000A0FB0254C1F3130141F48011C3F3130301
:1004B00043F4801301FB024400FB034E840A970AB5
:1004C00044EA815447EA8357A4FB076802958D0AE2
:1004D00005FB07854FEA932C04FB0C542705029D6E
:1004E0004FEA065847EA1637B5EB08056EEB070CDE
:1004F000870E920E47EA811742EA8312A7FB020198
:10050000B6EB0B0164EB00042B0D43EA0C335E18D1
:1005100044EB1C50DA465146E7FB0201C5F31304D5
:100520004FEA0B3343EA14534FEA0432019C43EA87
:100530000603A4F10C040294009CCDE900B400F081
:100540008FF903B0BDE8F08F00200146F9E72DE9EF
:10055000F04D81EA030404F0004B21F000451446FD
:100560004FF0000A23F0004150EA050220D054EA7F
:1005700001021DD0C5F30A570246C5F31303C1F3A8
:100580001300C1F30A5640F4801543F48013A7EB1F
:100590000608101BD64608F2FD3873EB050002D39F
:1005A00008F1010801E092185B41B8F1000F03DA8D
:1005B00000200146BDE8F08D00204FF48011064672
:1005C00084460EE0171B73EB050705D3121B63EB84
:1005D000050306434CEA010C49084FEA3000921823
:1005E0005B4150EA0107EDD152EA030012D082EAE2
:1005F000040083EA0501084305D0101BAB4106D275
:100600000122002306E000224FF0004302E06FF0D9
:10061000010253101AEB06004CEB085110EB0A00D4
:1006200041EB0B01BDE8F04D00F00BB9C10F80EAC2
:10063000E0700844CA079623002100F0D4B80EB534
:10064000C10F80EAE0700844CA07002140F233433A
:100650008DE80E000A460B4600F002F903B000BD1B
:1006600000F0004220F00040C10DC0F3160040F43D
:1006700000007F2901DA00207047962903DCC1F1D0
:100680009601C84001E096398840002AF4D04042E3
:10069000704700F0004230F000400AD0C10D01F573
:1006A0006071C0F3160042EA0151C20840071143CD
:1006B000704700200146704701F0004330B421F03C
:1006C000004150EA010206D00A0DA2F56072C1F3A2
:1006D0001301002A02DC30BC00207047440F44EABA
:1006E000C104C100E01830BC00EBC25000F072B889
:1006F000002801DBC0F10040002901DBC1F100410D
:100700008842704730B50B46014600202022012464
:1007100009E021FA02F59D4205D303FA02F5491BCF
:1007200004FA02F52844151EA2F10102F1DC30BDE5
:100730002DE9F05F0546002092469B468846064616
:10074000814640241BE02846414647462246FFF7A3
:10075000E9FC53465A46C01A914110D31146184637
:10076000224600F016F82D1A67EB01084F46224684
:100770000120002100F00DF817EB00094E41201E6A
:10078000A4F10104DFDC484631462A464346BDE871
:10079000F09F202A04DB203A00FA02F10020704783
:1007A0009140C2F1200320FA03F3194390407047AF
:1007B000202A06DBCB17203A41FA02F043EAE07325
:1007C00006E041FA02F3D040C2F120029140084312
:1007D000194670470029A8BF7047401C490008BF50
:1007E00020F00100704710B4B0FA80FC00FA0CF061
:1007F00050EA010404BF10BC704749B1CCF1200499
:1008000021FA04F411FA0CF118BF01212143084325
:10081000A3EB0C01CB1D4FEA00614FEA102042BF51
:10082000002010BC704700EBC35010440029A4BF47
:1008300010BC7047401C490008BF20F0010010BCEC
:10084000704710B5141E73F1000408DA401C41F122
:10085000000192185B411A4301D120F0010010BD44
:100860002DE9F04D92469B4611B1B1FA81F202E0BA
:10087000B0FA80F220329046FFF78BFF04460F4615
:1008800040EA0A0041EA0B0153465A46084313D096
:10089000114653EA010019D0C8F140025046FFF753
:1008A00041FC05460E46504659464246FFF771FF49
:1008B000084305D0012004E020463946BDE8F08D0C
:1008C0000020054346EAE0762C4337430A98630547
:1008D000E40AA0EB08000022FD0A44EA47540A306B
:1008E00002D500200146E9E7010510196941DDE95B
:1008F000084500196941BDE8F04DA2E770B521F047
:10090000004303430CD0C1F30A550024D5EB040582
:1009100064EB0403D617AD1AB34102DB0020014695
:1009200070BD201841EB025170BDC1F30A52C1F3F2
:10093000130140F2FF3341F480119A4202DA0020A1
:100940000146704740F233439A42A2F2334202DC3E
:100950005242FFF7E7BBFFF71CBF000030B5041E93
:1009600071F1000404DB4FF00044404264EB0101EC
:10097000141E73F1000405DB1C464FF00043524285
:1009800063EB0403994208BF904230BD064C074D0B
:1009900006E0E06840F0010394E80700984710344F
:1009A000AC42F6D3FFF7A6FB046A0008246A0008ED
:1009B0002DE9F04D00231A461B1A8A4103DB002063
:1009C0000146BDE8F08DC1F30A52C1F3130141F4B1
:1009D00080154FF0000BD10702D100186D41521E57
:1009E0000027044640F2FF11384601EB620A3E46FA
:1009F0008046024600204FF48011FFF793FBC21996
:100A00007141BB1846EB0100B4EB030C75EB000C15
:100A100004D3E41A65EB000517460E46241908F1C5
:100A200001006D4180463428E3DDF91946EB0600EC
:100A3000091BA84103D24FF0FF32134601E0002208
:100A400013461BEB070046EB0A51BDE8F04DFFF7DC
:100A5000F8BE10B51446FFF7EEFB01462046BDE890
:100A60001040FFF71DBC000070B5144C0546002275
:100A700094F85C1054F8580F00F0D8FC022000F0F5
:100A8000E3FA21790122206800F0D0FC022000F076
:100A9000DBFA21790022206800F0C8FC022000F077
:100AA000D3FA284602F024FB022000F0CDFA217987
:100AB0002068BDE87040012200F0B8BCD0000020E2
:100AC00010B50C461146FFF7B3FB2146BDE81040B8
:100AD000FFF7B4BB70B5164D002495F86410286E6E
:100AE00000F078FC10BB95F85C100022A86D00F0B7
:100AF0009DFC052003F0B0FA0E4EFF2002F0F8FA3C
:100B00003055641C032CF8DB052003F0A5FA95F89A
:100B10005C100122A86D00F089FC3078717841EA00
:100B20000020B17841EA002000020412204670BD86
:100B3000D0000020090000200820FFF795BF00002A
:100B400010B5FFF77CFD084A084BFFF78EFC00222A
:100B5000074BFFF78AFC4FF04042064BFFF7F7FCCC
:100B6000BDE81040FFF7A8BDFCA9F1D24D620040DE
:100B700000408F40FFFF5F4110B504F0D3FA2D4CC9
:100B8000002104202172217060701020A070E1709B
:100B9000084600F0B3F86178012000F0AFF8A178C2
:100BA000022000F0ABF8E178032000F0A7F82178EC
:100BB00021A002F0B9FC617825A002F0B5FCA17873
:100BC00023A002F0B1FCE17821A002F0ADFC0A20E4
:100BD00000F03AFA002000F047F82071012000F000
:100BE00043F86071022000F03FF8A071032000F08C
:100BF0003BF8E071217910A002F096FC617916A013
:100C000002F092FCA17914A002F08EFCE17912A00E
:100C100002F08AFC12A002F087FC1248012290F830
:100C20005C10806D00F002FCBDE81040642000F014
:100C30000BBA000000000020436F6E6669675F52C8
:100C40006567203A0D0A20307825780D0A000000EB
:100C500020307825780D0A00307825780D0A0000BC
:100C600020000000D000002070B52021104C41EA87
:100C70008000C5B294F85C1054F8580F002200F0C0
:100C8000D5FB052000F0E0F9284602F031FAFF20FC
:100C900002F02EFA0546052000F0D6F9217901224E
:100CA000206800F0C3FB052000F0CEF9284670BD97
:100CB000D0000020044A117821F0F0010143C9B2AC
:100CC0001170002000F01AB800000020044A51788A
:100CD00021F0E0010143C9B25170012000F00EB8CB
:100CE00000000020044A117821F00E010143C9B22E
:100CF0001170002000F002B80000002070B50E4610
:100D00004021104C41EA8000C5B294F85C1054F8C0
:100D1000580F002200F08AFB052000F095F92846C4
:100D200002F0E6F9304602F0E3F9052000F08CF914
:100D300021790122206800F079FBBDE87040052090
:100D400000F082B9D0000020FEE70000014800F06A
:100D50001BB8000048070020014800F015B800004B
:100D60008C070020704710B54FF4805000F092F9C6
:100D70004FF4005000F08EF9BDE810404FF4804071
:100D800000F088B9704700002DE9F05FC16B0C6876
:100D900001680B68D0F840C0042202FA0CF2494DF9
:100DA000DFF824A1494E4A4FDFF828B1DFF828E1E7
:100DB00022422CD05A072AD50A68920603D40A6820
:100DC00022F004020A600168A94201D1042219E05C
:100DD000514501D1402215E0B14202D14FF4806269
:100DE00010E0B94202D14FF480420BE0594502D1E4
:100DF0004FF4802206E0714502D14FF4800201E0F9
:100E00004FF080622F4908394A60C16A3BE04FF0D9
:100E1000020808FA0CF818EA040F4FF000094FF026
:100E2000010235D05FEA837832D50B689B0605D482
:100E30000B6823F00A030B6080F821200168A942A7
:100E400001D1022219E0514501D1202215E0B14221
:100E500002D14FF4007210E0B94202D14FF40052B7
:100E60000BE0594502D14FF4003206E0714502D142
:100E70004FF4001201E04FF00072124908394A6045
:100E800080F82090816A00291AD0BDE8F05F0847F9
:100E9000082505FA0CF5254212D01B0710D50B6862
:100EA00023F00E030B6090F84010C36B02FA01F1BF
:100EB0005960826380F8212080F82090016BE2E77E
:100EC000BDE8F09F080002401C00024030000240D4
:100ED00044000240580002406C00024070B504001B
:100EE0007ED04A49206888421BD048491431884244
:100EF00017D046492831884213D044493C318842B2
:100F00000FD04249503188420BD040496431884269
:100F100007D03E497831884203D0AA213CA003F093
:100F200017F8606840B1102806D0B0F5804F03D0A4
:100F3000AB2137A003F00CF8A068402804D018B10A
:100F4000AC2133A003F004F8E068802804D018B185
:100F5000AD212FA002F0FCFF206948B1B0F5807FE1
:100F600006D0B0F5007F03D0AE2129A002F0F0FF3B
:100F7000606948B1B0F5806F06D0B0F5006F03D05E
:100F8000AF2123A002F0E4FFA06928B1202803D0FC
:100F9000B0211FA002F0DCFFE06960B1B0F5805F16
:100FA00009D0B0F5005F06D0B0F5405F03D0B121A5
:100FB00017A002F0CDFF04CC144814214042104485
:100FC000B0FBF1F08000E06310480838A063022015
:100FD0006077116843F6F0708143D4E9000300E0C4
:100FE00012E01843D4E902352B4318432369184310
:100FF00063691843A36918430843106000206063C5
:1010000001216177207770BD012070BD080002408A
:101010002E2E2F447269766572732F53544D3332DE
:10102000463178785F48414C5F4472697665722F2B
:101030005372632F73746D3332663178785F6861F1
:101040006C5F646D612E630070B5044600F024FA95
:101050000546601C02D004480078044400F01CFAE5
:10106000401BA042FAD370BDB80000200849B0F57B
:10107000805F08D0B0F5005F07D0B0F5804F01D198
:101080000020087070470220FBE70120F9E700000C
:1010900029000020044910B50A68024202D0086005
:1010A000FFF7E4FF10BD0000140401402DE9F84FE4
:1010B000DFF8A8B20D4604464FF0000958450FD09E
:1010C000A74884420CD0A748844209D0A64884424D
:1010D00006D0A648844203D0CD21A5A002F038FF57
:1010E00028680104090C01D0000C03D0CE21A0A077
:1010F00002F02EFF6868F8B101281DD011281BD01E
:10110000022819D0122817D0A849884214D0A8491B
:10111000884211D0A74988420ED0A74988420BD0F7
:10112000A649884208D0A649884205D0032803D0A2
:10113000CF218FA002F00CFF00274FF0010A00BF63
:101140002E680AFA07F806EA080646456FD15C459C
:101150000FD0834884420CD08248844209D0824810
:10116000844206D08148844203D0DD2180A002F071
:10117000EFFE8E4869680A1A814259D00EDC0329B5
:1011800076D006DC002953D0012919D002296AD172
:1011900031E0112921D0122965D13AE0B2F5881F3A
:1011A00046D006DCB2F5803F42D0B2F5801F5AD15E
:1011B0003EE0B2F5001F3BD0B2F5041F53D137E03B
:1011C000E868022807D0012805D0032803D0E521CC
:1011D00067A002F0BDFEE8683FE0E868022807D09B
:1011E000012805D0032803D0EC2161A002F0B0FE55
:1011F000E868001D31E0E868022807D0012805D022
:10120000032803D0F3215AA002F0A2FEE8680830B8
:1012100023E0E868022807D0012805D0032803D07E
:10122000FA2153A002F094FEE8680C3015E089E042
:10123000A86888B1012812D0022808D040F207110E
:101240004BA002F085FEA86830B1012807D04FF00E
:101250000809C4F8148006E00420814603E04FF03A
:101260000809C4F81080FF2E05D8224605E0FFE7E4
:101270004FF00000F1E704F104024FEA870001D9C2
:10128000A0F1200013684FF00F0101FA00FC23EADF
:101290000C0309FA00FC43EA0C0313606868C00001
:1012A00056D54848826942F001028261806927F080
:1012B000030200F001000090434802449068BB071D
:1012C0001B0F994088435C4501D100210FE0244960
:1012D0008C4201D101210AE022498C4201D1022134
:1012E00005E021498C4201D1032100E0042199400D
:1012F000014391606868C0033448016801D53143F7
:1013000000E0B1430160686880033148016801D59D
:10131000314300E0B14301606868C00205D52C4844
:10132000001D01683143016004E02949091D086876
:10133000B04308606868800205D52549083108680F
:101340003043086004E0224808300168B14301607E
:101350007F1C102FFFF4F4AEBDE8F88F00080140A9
:10136000000C014000100140001401400018014031
:101370002E2E2F447269766572732F53544D33327B
:10138000463178785F48414C5F4472697665722FC8
:101390005372632F73746D3332663178785F68618E
:1013A0006C5F6770696F2E63000000000000111011
:1013B0000000211000003110000012100000221067
:1013C0000000321000100240000001400004014003
:1013D0000404014070B50C00054604D140F2C3116D
:1013E00003A002F0B5FDA868204000D0012070BD28
:1013F0002E2E2F447269766572732F53544D3332FB
:10140000463178785F48414C5F4472697665722F47
:101410005372632F73746D3332663178785F68610D
:101420006C5F6770696F2E630000000070B5154631
:101430000C00064604D140F2E31108A002F088FD3A
:1014400045B1012D04D04FF4F27104A002F080FDEB
:10145000346170BD2004306170BD00002E2E2F4419
:101460007269766572732F53544D333246317878F2
:101470005F48414C5F4472697665722F5372632FE7
:1014800073746D3332663178785F68616C5F677052
:10149000696F2E63000000000148806870470000FB
:1014A000B800002070B5040074D0774920688842E5
:1014B00007D07649884204D040F27D1174A002F032
:1014C00047FD60688049401E884204D94FF4BF71CF
:1014D0006FA002F03DFDA0684FF4804530B1A842F6
:1014E00004D040F27F116AA002F032FDE068800A69
:1014F00004D04FF4C07166A002F02AFD2069A84212
:1015000007D0B0F5404F04D040F2811160A002F046
:101510001FFD606930B1012804D04FF4C1715CA097
:1015200002F016FDA06930F0FE0004D040F28311F5
:1015300057A002F00DFDE06930B1402804D04FF40F
:10154000C27153A002F004FD206A30B1802804D09B
:1015500040F285114EA002F0FBFC94F83D000025FE
:1015600020B984F83C50204600F07AF9242084F811
:101570003D002068016821F00101016000F058FC85
:10158000524A6168914202D8514901E002E0514952
:10159000884201D2012070BD4F492368B0FBF1F1B0
:1015A00059606368934206D94FF4967359434FF4D8
:1015B0007A73B1FBF3F12368491C196261689142A7
:1015C00010D84900401EB0FBF1F2521CC2F30B02CE
:1015D000042A01D2042023E0B0FBF1F0401CC0F348
:1015E0000B001DE0A368D3B301EBC10202EB0116AF
:1015F000421EB2FBF6F2521C42F48042120537D072
:1016000073B301EBC10202EB0111401EB0FBF1F01C
:10161000401CC0F30B0040F4804000BF40F4004089
:101620002168C861D4E90701084321680860D4E94A
:101630000310084321688860D4E905010843216844
:10164000C8602068016841F0010101602564202024
:1016500084F83D00256384F83E50002070BD00E012
:1016600008E001EB4106421EB2FBF6F2521CC5E750
:101670000120D5E701EB4101401EB0FBF1F0401C19
:10168000C0F30B00CAE700000054004000580040BF
:101690002E2E2F447269766572732F53544D333258
:1016A000463178785F48414C5F4472697665722FA5
:1016B0005372632F73746D3332663178785F68616B
:1016C0006C5F6932632E63007F1A0600A0860100FA
:1016D00080841E0000093D0040420F002DE9FF4FAD
:1016E00083B01F46DDE911A893460446DDF840901B
:1016F000FFF7D2FE0646012F06D0102F04D040F689
:10170000951147A002F024FC94F83D0020287DD1DB
:101710001923012250492046009601F084FB00283D
:101720007CD194F83C00012878D0012084F83C005A
:1017300020680168C90703D1016841F00101016017
:101740002068016821F400610160212084F83D00D7
:10175000402084F83E0000252564C4F82490A4F8B5
:101760002AA03E48E062608D2085CDE900863B4698
:101770005A462046049901F0DFFA80B3206C84F8C1
:101780003C50042848D008E032464146204601F04B
:10179000BFFB30B1206C042839D0032007B0BDE86E
:1017A000F08F606A411C6162216800780861208DB9
:1017B000401E80B22085618D491E618521684A697D
:1017C000D24352070BD468B1606A421C626200784F
:1017D0000861208D401E2085608D401E6085208D13
:1017E0000028D1D132464146204601F0F5FA0028C2
:1017F000D0D154F83D0B016841F400710160202004
:1018000004F81E09E57765770020C7E706E0206841
:10181000016841F4007101600120BFE70220BDE7CB
:101820002E2E2F447269766572732F53544D3332C6
:10183000463178785F48414C5F4472697665722F13
:101840005372632F73746D3332663178785F6861D9
:101850006C5F6932632E6300020010000000FFFF1E
:1018600010B586B0002100910191029103910068AA
:101870000F4988421AD10F4CA06940F00800A061BE
:10188000A069694600F008000490C0200090122072
:101890000190032003900848FFF708FCE06940F43A
:1018A0000010E061E06900F40010049006B010BD83
:1018B0000054004000100240000C014002488168C2
:1018C0000278114481607047B8000020074810B5C5
:1018D000016841F010010160032000F0E5F80020EC
:1018E00000F006F800F03EF8002010BD0020024095
:1018F00000B5014687B00022192000F085F81920B4
:1019000000F052F81348816941F4006181618069F7
:1019100005A900F400600690684600F03FFA00F068
:1019200097FA0D490D4AB0FBF1F10D48491E0260CE
:10193000416040F2E7320021C0E90321816000F0FC
:1019400049FF10B1012007B000BD054800F0B4FF09
:10195000F9E700000010024040420F00002C014057
:10196000D00700200E4808B5816941F0010181616E
:10197000816901F001010091C16941F08051C161AB
:10198000C06900F080500090072000F08DF80548F5
:10199000416821F0E06141F00071416008BD000044
:1019A000001002400000014010B5040003D5CE2114
:1019B00006A002F0CDFA04F01F0101208840610961
:1019C000890001F1E021C1F8000110BD2E2E2F4445
:1019D0007269766572732F53544D3332463178787D
:1019E0005F48414C5F4472697665722F5372632F72
:1019F00073746D3332663178785F68616C5F636FE2
:101A0000727465782E63000070B515460C46064664
:101A1000102A03D3BA2114A002F09AFA102C03D38F
:101A2000BB2111A002F094FA1E480068C0F3022303
:101A3000C3F107022046042A00D90422191D0729F0
:101A400001D2002300E0DB1E012404FA02F1491E4A
:101A5000014099409C40641E2C4021433046BDE823
:101A6000704001F023BB00002E2E2F447269766572
:101A700072732F53544D3332463178785F48414C5E
:101A80005F4472697665722F5372632F73746D337E
:101A900032663178785F68616C5F636F7274657805
:101AA0002E6300000CED00E010B5044607280BD0B3
:101AB000062C09D0052C07D0042C05D0032C03D00C
:101AC000A22108A002F044FA154904F007020868B0
:101AD0004FF6FF03184040EA0220124A1043086004
:101AE00010BD00002E2E2F447269766572732F533D
:101AF000544D3332463178785F48414C5F447269C7
:101B00007665722F5372632F73746D33326631783A
:101B1000785F68616C5F636F727465782E63000034
:101B20000CED00E00000FA052DE9F0470E46050037
:101B300004D140F22E3187A002F00AFA2868C107CA
:101B40000AD1810708D4410706D4000704D440F223
:101B50002F3180A002F0FCF946B1012E06D0022EF2
:101B600004D04FF44C717BA002F0F2F9DFF81C8234
:101B7000D8F8000000F00700B0420CD2D8F80010EE
:101B800021F007013143C8F80010D8F8000000F038
:101B90000700B04275D128687D4C810729D54007E0
:101BA00003D5606840F4E06060602878000703D5E2
:101BB000606840F460506060A868A0B1802812D0CE
:101BC000902810D0A0280ED0B0280CD0C0280AD061
:101BD000D02808D0E02806D0F02804D040F25631B2
:101BE0005CA002F0B5F96068A96820F0F000084335
:101BF00060602878C00751D0686868B1012821D09A
:101C0000022822D040F25D3152A002F0A1F96868AA
:101C1000012817D0022818D02068800700284EDA43
:101C20006068696820F0030008436060FFF734FCD7
:101C30006968074641F2883001290FD002298146A0
:101C400019D027E020688003E8E720688001E5E7F5
:101C5000FFF722FCC11B494501D918E081466068A5
:101C6000C0F381000128F3D118E000BFFFF714FC96
:101C7000C11B49450BD86068C0F381000228F5D12B
:101C80000CE01CE0FFF708FCC11B494502D903200A
:101C9000BDE8F087606810F00C0FF3D1D8F80010A1
:101CA000404601F00701B1420BD9016821F007015C
:101CB00031430160006800F00700B04201D001200C
:101CC000E6E728784FF4806640074FF4A0674FF4AA
:101CD000C0684FF4E06914D5E86860B1B0420AD03A
:101CE000B84208D0404506D0484504D040F2B13152
:101CF00018A002F02DF96068E96820F4E06008435C
:101D000060602878000715D5286960B1B0420AD014
:101D1000B84208D0404506D0484504D04FF46E7113
:101D20000CA002F015F96068296920F4605040EABF
:101D3000C100606000F09CF86168164AC1F30311AD
:101D4000515CC840144908600020FFF7D1FD002015
:101D50009EE700002E2E2F447269766572732F5312
:101D6000544D3332463178785F48414C5F44726954
:101D70007665722F5372632F73746D3332663178C8
:101D8000785F68616C5F7263632E630000200240BD
:101D900000100240F0680008C400002070B50D4635
:101DA000040004D14FF4A66111A002F0D1F825B9C6
:101DB00040F231510EA002F0CBF80F2020601A48FB
:101DC000416801F003016160416801F0F001A16028
:101DD000416801F4E061E16040684FF4E06101EACC
:101DE000D00020611148006800F00700286070BD35
:101DF0002E2E2F447269766572732F53544D3332F1
:101E0000463178785F48414C5F4472697665722F3D
:101E10005372632F73746D3332663178785F686103
:101E20006C5F7263632E630000100240002002406A
:101E30000448054900684968044AC1F30221515C1D
:101E4000C8407047C400002000100240006900082C
:101E50000448054900684968044AC1F3C221515C3D
:101E6000C8407047C400002000100240006900080C
:101E700012A185B00FC98DE80F0014A0144A0068A4
:101E800004905168134801F00C03042B10D0082B68
:101E90000ED1C1F38343C9031DF803000AD551686D
:101EA00004AAC1F34041515C0A4A5043B0FBF1F02F
:101EB00005B0704708494843FAE7000002030405EB
:101EC000060708090A0B0C0D0E0F10100102000086
:101ED0000010024000127A0000093D002DE9F84F81
:101EE000040004D14FF4B871F4A002F031F84FF0BF
:101EF000010A4FF000084FF48039FE4EFE4D206875
:101F000060B1C1070DD1810763D401077ED44007BA
:101F10007DD440F27111E9A002F01AF82078C007D0
:101F200054D060684FF4A02740B1484506D0B8426D
:101F300004D040F27711E1A002F00AF86868C0F31B
:101F40008100012807D06868C0F38100022809D108
:101F50006868C00306D52868800337D56068002804
:101F600076D033E06068484503D1286840F480307B
:101F700009E008B1B8420DD0286820F4803028600C
:101F8000286820F480202860606890B1FFF784FA08
:101F900007460AE0286840F480202860E5E700BF93
:101FA000FFF77AFAC01B642877D828688003F7D532
:101FB0000CE0FFF771FA074605E000BFFFF76CFA87
:101FC000C01B6428F0D828688003F7D420788007E5
:101FD0004ED5206930B1012804D040F2AB11B7A032
:101FE00001F0B6FF60691F2804D94FF4D671B3A081
:101FF00001F0AEFF686810F00C0F0AD06868C0F3FB
:10200000810002280CD16868C00301E033E06CE075
:1020100006D42868800713D52069012818D10FE05D
:102020002069B0B1C6F800A0FFF736FA074604E011
:10203000FFF732FAC01B0228B6D828688007F7D508
:102040002868616920F0F80040EAC10028600FE0CC
:1020500033E1C6F80080FFF71FFA074605E000BF2E
:10206000FFF71AFAC01B02289ED828688007F7D409
:102070002078000736D5A14FA06920B3012806D0EB
:102080004FF4F6718DA001F063FFA069D8B1C7F8D5
:1020900000A0FFF701FA074605E052E1FFF7FCF95F
:1020A000C01B02288ED8686A8007F7D594484FF481
:1020B000FA510068B0FBF1F0009000BF0098411E9B
:1020C0000091FAD20EE0C7F80080FFF7E5F9074665
:1020D00005E000BFFFF7E0F9C01B0228ACD8686A32
:1020E0008007F7D4207840076CD5E068002740B11E
:1020F000012806D0052804D040F21B216FA001F072
:1021000027FFE869C00008D4E86940F08050E86122
:10211000E869012700F0805000907A480168C905FD
:1021200012D4016841F480710160FFF7B5F983466C
:1021300006E000BFFFF7B0F9A0EB0B00642893D8CE
:1021400070480068C005F5D5E06801280AD008B1DC
:10215000052811D0286A20F001002862286A20F0A2
:10216000040002E0286A40F001002862E068A8B19B
:10217000FFF792F983460DE0286A40F004002862D8
:10218000F0E700BFFFF788F9A0EB0B0141F28830C0
:10219000814287D8286A8007F4D50EE0FFF77CF9E2
:1021A000834607E0FFF778F9A0EB0B0141F2883096
:1021B000814293D8286A8007F4D41FB1E86920F0DF
:1021C0008050E861E069002876D0012809D0022813
:1021D00007D040F2B92139A001F0BAFEE069002829
:1021E0006AD06868C0F38100022866D0E0690228DE
:1021F00005D0C6F86080FFF74FF90446A4E0206AD6
:1022000030B1484504D040F2C2212CA001F0A0FE1C
:10221000606A70B3B0F5802F2BD0B0F5002F28D0B6
:10222000B0F5402F25D0B0F5801F22D0B0F5A01F0B
:102230001FD0B0F5C01F1CD0B0F5E01F19D0B0F50D
:10224000001F16D0B0F5101F13D0B0F5201F10D00E
:10225000B0F5301F0DD0B0F5401F0AD0B0F5501FBB
:1022600007D0B0F5601F04D040F2C32113A001F0E5
:102270006FFEC6F86080FFF70FF9074605E000BF64
:10228000FFF70AF9C01B02285BD828688001F7D441
:10229000206A48450FD1A06838B1B0F5003F04D09E
:1022A00040F2D92105A001F053FE6868A16820F42E
:1022B00000300843686027E049E04AE02E2E2F44B2
:1022C0007269766572732F53544D33324631787884
:1022D0005F48414C5F4472697665722F5372632F79
:1022E00073746D3332663178785F68616C5F7263E6
:1022F000632E63000000424200100240800442420C
:10230000C400002000700040D4E908010843696857
:1023100021F4741108436860C6F860A0FFF7BCF8A8
:10232000044604E0FFF7B8F8001B022809D8286823
:102330008001F7D50BE000BFFFF7AEF8001B0228C5
:1023400002D90320BDE8F88F28688001F4D400206A
:10235000F8E70120F6E7000070B5040066D04F49A9
:102360002068884206D04E49884203D06B214DA098
:1023700001F0EEFD606830B1B0F5827F03D06C21D2
:1023800048A001F0E5FDA06848B1B0F5806F06D027
:10239000B0F5004F03D06D2142A001F0D9FDE068F7
:1023A000B0F5006F04D018B16E213EA001F0D0FD51
:1023B000206928B1022803D06F213AA001F0C8FD9E
:1023C000606928B1012803D0702136A001F0C0FD5A
:1023D000A069B0F5007F07D030B1B0F5802F03D0F1
:1023E000712130A001F0B4FDE06988B108280FD058
:1023F00010280DD018280BD0202809D0282807D065
:10240000302805D0382803D0722126A001F0A0FD85
:10241000206A28B1802803D0732122A001F098FD02
:102420000025A56294F8510010B104E0012070BDB0
:10243000204600F055F8022084F851002068016819
:1024400021F040010160D4E901010843D4E90312FD
:102450001143084361690843218B01F4007108436B
:10246000E1690843216A0843A16A084321680860BA
:10247000A069042101EA1040616A084321684860AC
:102480002168E06A08612068C16921F40061C161C6
:102490006565012084F85100002070BD00300140C6
:1024A000003800402E2E2F447269766572732F53C8
:1024B000544D3332463178785F48414C5F447269FD
:1024C0007665722F5372632F73746D333266317871
:1024D000785F68616C5F7370695F65782E63000078
:1024E000F0B585B00024064600940194029403944C
:1024F0000068294988424DD12848816941F48051BA
:102500008161816901F480510491816941F0040184
:1025100081618069224D00F004000490A0200090A9
:10252000022001900320039069462846FEF7BEFD75
:102530004020CDE90004694628460294FEF7B6FD26
:10254000194D18488027C5E90004C5E902472C61E8
:102550004FF440506C61C5E906402846FEF7BEFCCA
:1025600008B1FEF70FFCF5646E620E480F4D143093
:1025700001C5102091C5C00165E804402020A86174
:10258000C001E8610948FEF7A9FC08B1FEF7FAFBB3
:10259000B5646E6205B0F0BD00300140001002402D
:1025A000000801401C000240480700208C07002062
:1025B0002DE9F84F04460A9F80689A4693460D46D7
:1025C0004FF00108002620B140F2413172A001F025
:1025D000BFFC94F8500001280ED0012084F8500070
:1025E000FEF75AFF814694F85100616801280CD02B
:1025F000B1F5827F07D102E00220BDE8F88FA16823
:1026000009B9042801D00226BEE055B1BBF1000F84
:1026100007D0BAF1000F04D094F85100012802D07D
:1026200004E00126B0E0052084F851000020606538
:10263000C4F838B0A4F83EA0A4F83CA02563A4F8E0
:1026400036A0A4F834A020646064206801684906BC
:1026500003D4016841F040010160E068B0F5006F0B
:10266000606804D0F0B3E08E01283CD06BE010B17C
:10267000E08E01282FD1216835F8020BC860E08E6A
:10268000401EE08627E000BFB8F1000F0DD0E08EBD
:1026900058B120688168890707D535F8021BC160E9
:1026A000E08E401EE0864FF00008E08F58B12068B1
:1026B0008168C90707D0C0682BF8020BE08F401E65
:1026C000E0874FF00108781C05D0FEF7E5FEA0EB8F
:1026D0000900B84246D2E08E0028D5D1E08F00280C
:1026E000D2D136E0FFE7216815F8010B0873E08EC0
:1026F000401EE08627E000BFB8F1000F0DD0E08E4D
:1027000058B120688168890707D515F8011B017346
:10271000E08E401EE0864FF00008E08F58B1206840
:102720008168C90707D0C0680BF8010BE08F401E15
:10273000E0874FF00108781C05D0FEF7ADFEA0EB56
:102740000900B8420ED2E08E0028D5D1E08F0028D3
:10275000D2D13B46012202212046CDF8009000F064
:10276000D7FC08B103260FE04A463946204600F060
:10277000AEFC18B101262020606505E0A06818B9FC
:102780002068C16880680090012084F85100002012
:1027900084F85000304630E72E2E2F44726976655B
:1027A00072732F53544D3332463178785F48414C21
:1027B0005F4472697665722F5372632F73746D3341
:1027C00032663178785F68616C5F7370692E630080
:1027D0007047704710B5040036D0254920688842FC
:1027E0000CD0B0F1804F09D02249884206D022494E
:1027F000884203D0D92121A001F0AAFBA06858B1DA
:10280000102809D0202807D0402805D0602803D000
:10281000DA211AA001F09CFB206948B1B0F5807F55
:1028200006D0B0F5007F03D0DB2114A001F090FBAF
:10283000A06928B1802803D0DC2110A001F088FB1A
:1028400094F83D0010B107E0012010BD002084F88D
:102850003C00204600F02EF8022084F83D00211DA7
:10286000206800F0F3FC012084F83D00002010BD3A
:10287000002C014000040040000800402E2E2F4490
:102880007269766572732F53544D333246317878BE
:102890005F48414C5F4472697665722F5372632FB3
:1028A00073746D3332663178785F68616C5F746918
:1028B0006D2E63007047000010B5044600680E4995
:1028C00088420DD0B0F1804F0AD00C49884207D021
:1028D0000B49884204D040F261110AA001F038FB94
:1028E0002068C16841F00101C1602068016841F0C1
:1028F00001010160002010BD002C014000040040D7
:10290000000800402E2E2F447269766572732F5393
:10291000544D3332463178785F48414C5F44726998
:102920007665722F5372632F73746D33326631780C
:10293000785F68616C5F74696D2E6300704770B575
:102940000446006801694FF00005C943890715D4A2
:10295000C168C943890711D4E91E016101202077AC
:10296000206880698007204602D0FFF7E7FF04E077
:1029700000F098F8204600F096F825772068016965
:10298000C943490717D4C168C943490713D46FF035
:1029900004010161022020772068806910F4407FE3
:1029A000204602D0FFF7CAFF04E000F07BF8204683
:1029B00000F079F8257720680169C943090716D422
:1029C000C168C943090712D46FF0080101610420EE
:1029D00020772068C0698007204602D0FFF7AEFF4D
:1029E00004E000F05FF8204600F05DF825772068ED
:1029F0000169C943C90617D4C168C943C90613D4BC
:102A00006FF010010161082020772068C06910F480
:102A1000407F204602D0FFF791FF04E000F042F82B
:102A2000204600F040F8257720680169C943C907AE
:102A300008D1C168C943C90704D1891E0161204674
:102A400000F032F820680169C943090609D4C16859
:102A5000C943090605D46FF0800101612046FFF7E4
:102A6000B7FE20680169C943490609D4C168C94352
:102A7000490605D46FF040010161204600F026F8B8
:102A800020680169C94389060BD4C168C943890616
:102A900007D46FF0200101612046BDE87040FFF7C8
:102AA00098BE70BD7047704770B504460068064D0B
:102AB000A84201D1FEF702FF2068A84203D1BDE879
:102AC000704001F0A1BD70BD002C014070470000B6
:102AD00070B5040020D0A06930490028304A314B3D
:102AE00020681BD088420AD0904208D0984206D075
:102AF00040F20F112CA001F02BFAA069C8B1A06917
:102B0000B0F5807F15D0B0F5007F12D0B0F5407FD2
:102B10000FD04FF4887109E0012070BD884208D0C1
:102B2000904206D0984204D04FF48A711EA001F062
:102B30000FFAA06838B1B0F5805F04D04FF48B7104
:102B400019A001F005FA94F83900002520B984F89D
:102B50003850204600F046F8242084F839002068D8
:102B6000C16821F40051C160204600F0A5FB206837
:102B7000016921F4904101612068416921F02A0135
:102B800041612068C16841F40051C160E5632020C3
:102B900084F8390084F83A00002070BD0038014004
:102BA00000440040004800402E2E2F447269766594
:102BB00072732F53544D3332463178785F48414C0D
:102BC0005F4472697665722F5372632F73746D332D
:102BD00032663178785F68616C5F756172742E63FC
:102BE0000000000030B585B00024009401940294E8
:102BF000039400681449884224D11448816941F43F
:102C000080418161816901F480410491816941F0D1
:102C10000401816180690E4D00F0040004904FF4BE
:102C2000007000900220019003200390694628461E
:102C3000FEF73CFA2815CDE90004694628460294BF
:102C4000FEF734FA05B030BD0038014000100240F4
:102C5000000801402DE9F843044690F839001F466A
:102C600016460D46202850D1A5B19EB194F83800E3
:102C700001284AD0012084F838004FF00008C4F839
:102C80003C80212084F83900FEF706FCA6848146AA
:102C9000E68426E00120BDE8F883E08C401EE08455
:102CA000A0684B46B0F5805F4FF000024FF0800106
:102CB0002046009703D000F003FCE8B90DE000F0D7
:102CC000FFFBC8B928882168C0F308004860206964
:102CD00008B16D1C05E0AD1C03E0216815F8010B7F
:102CE0004860E08C0028D8D14B4600224021204685
:102CF000009700F0E5FB08B10320CCE7202084F822
:102D0000390084F838800020C5E70220C3E7FEE7D9
:102D100001684A69D24352050CD46FF480624A615B
:102D200004210164002140F8301F20224273017306
:102D300001207047002070472DE9F84304460068E1
:102D40000D46DDE9089701689846164641F4807102
:102D500001604B4600224FF001112046009700F021
:102D600062F8E8B9216805F0FE0008613B464A4672
:102D70001849204600F088F828B1206C04280FD1AB
:102D80000120BDE8F88320684169806900903A46D7
:102D90004946204600F0BCF820B1206C042813D02E
:102DA0000320EEE7F5B2B8F1010F09D02168300A2F
:102DB00008613A464946204600F0AAF80028ECD1BE
:102DC000206805610020DCE72068016841F400719B
:102DD0000160D5E70200010070B516460D460446B5
:102DE0001AE02046FFF794FF08B1012070BD681C6F
:102DF00012D025B1FEF750FB801BA8420CD954F825
:102E0000400F40F0200044F81009002020602021ED
:102E100061732073032070BD20684069C043400780
:102E2000DFD4002070BD2DE9F0471E4690460D46C8
:102E30000446C1F30747DDF8209012E0701C10D063
:102E40002EB1FEF729FBA0EB0900B04209D9002002
:102E500044F8300F20216173A07320730320BDE874
:102E6000F0872068012F0AD0806925EA000000045D
:102E7000000C06D000214145E0D00020EFE740697A
:102E8000F3E70121F7E700002DE9F0479A46914664
:102E90000D46044600264FF02008C1F307472AE0FC
:102EA00020684069C043400512D42068016841F49D
:102EB0000071016021686FF4806048610420206423
:102EC000266384F83D8084F83C600120BDE8F087EB
:102ED000B9F1FF3F0FD0B9F1000F05D0FEF7DCFAD2
:102EE000A0EB0A01494506D944F8306F84F80D80FB
:102EF00026730320EAE72068012F07D0D0F81800D6
:102F000025EA00000004000CE0D0C9E74069F7E7BB
:102F100070B516460D4604461AE02046FFF7F8FE47
:102F200008B1012070BD681C12D025B1FEF7B4FABB
:102F3000801BA8420CD954F8400F40F0200044F800
:102F4000100900202060202161732073032070BDD0
:102F500020684069C0430006DFD4002070BD000037
:102F6000F0B585B000243D48009401940294039488
:102F7000816941F010018161816901F010010491C2
:102F8000816941F020018161816901F02001049192
:102F9000816941F004018161816901F004010491BA
:102FA000816941F00801816180692D4E00F00800BF
:102FB0004FF400550490002229463046FEF736FAB9
:102FC000284F012210213846FEF730FA00224FF434
:102FD000C0513846FEF72AFA0220CDE9024000959A
:102FE0000125694601953046FEF760F848F2071062
:102FF0000326CDE9000669463846FEF757F8082053
:10300000CDE90004694638460294FEF74FF841F6D0
:103010001000CDE90005CDE9024669463846FEF7C5
:1030200045F848F63F70CDE900060F4C694620464A
:10303000FEF73CF84FF4E04000900C48CDE9010564
:1030400069462046FEF732F8002211462820FEF796
:10305000DBFC2820FEF7A8FC05B0F0BD0010024004
:103060000010014000080140000C01400000211048
:103070000C480B49012201604FF48271416000212C
:103080008160C160C0E90412520282611022C0E96D
:103090000721416281620A21C162FFF75DB9000028
:1030A00000300140B0060020FEE770470907090E16
:1030B000002806DA00F00F0000F1E02080F8141D6F
:1030C000704700F1E02080F800147047704738B571
:1030D0000B46009204460022802100F019F80028D7
:1030E00004D0606D40F020006065032038BD000012
:1030F0000EB501238DF804006420009002AA01A9F6
:103100000248FFF755FA9DF808000EBDB0060020F2
:103110002DE9F0411D4617460E460446DDF818809D
:1031200035E0681C33D02DB1FEF7B6F9A0EB0800EE
:10313000A8422CD32068416821F0E001416060681A
:10314000B0F5827F0BD1A068B0F5004F02D0B0F58A
:10315000806F04D12068016821F040010160A06AFD
:10316000B0F5005F0AD1206801684DF6FF7211408A
:1031700001602068016841F400510160012084F879
:103180005100002084F850000320BDE8F081206841
:10319000806836EA000004D00020B842C1D1002087
:1031A000F3E70120F9E7704730B58FB02821684672
:1031B000FCF7E1FF14210AA8FCF7DDFF0121080458
:1031C000CDE900100024029402250491CDE90750B6
:1031D0004FF4E01009906846FEF780FE0F20CDE91D
:1031E0000A056802CDE90C4002210AA80E94FEF7F8
:1031F0009BFC0FB030BD00000D48016841F001019B
:10320000016041680B4A1140416001680A4A11405F
:103210000160016821F480210160416821F4FE0110
:1032200041604FF41F0181600449C003086070478A
:10323000001002400000FFF8FFFFF6FE08ED00E07E
:103240000148FFF77CBB0000D0070020F0B5026802
:10325000164B174C174D4FF08047984205D0B84297
:1032600003D0A04201D0A84203D122F070064A68E0
:103270003243984205D0B84203D0A04201D0A842C0
:1032800003D122F44074CA68224322F080044A69C0
:10329000224302608A68C2620A688262984201D14F
:1032A0000969016301214161F0BD0000002C01406A
:1032B00000040040000800402DE9F0410446406849
:1032C0006E49884204D340F6A7116DA000F040FE7D
:1032D000E06838B1B0F5005F04D040F6A81168A0EE
:1032E00000F036FE206950B1B0F5806F07D0B0F520
:1032F000C06F04D040F6A91161A000F029FE6069FA
:103300004FF6F371084200D120B940F6AA115CA033
:1033100000F01EFE20680169E26821F4405111436B
:1033200001612169A0680843616908432168CA688E
:1033300041F20C639A430243CA6020684169A26962
:1033400021F44071114341615C49206864253226B3
:1033500088423CD1FEF77CFD00EBC00101EB001080
:1033600061688900B0FBF1F7FEF772FD00EBC00168
:1033700001EB00106168B0468900B0FBF1F0B0FBD2
:10338000F5F06FF01801484307EB800106EB0110E0
:10339000B0FBF5F000F0F006FEF75AFD00EBC001BF
:1033A00001EB001061688900B0FBF1F0B0FBF5F0B3
:1033B00006EB0016FEF74CFD00EBC00101EB001020
:1033C00061688900B0FBF1F7FEF742FD3BE0FEF7D4
:1033D0002FFD00EBC00101EB001061688900B0FB1C
:1033E000F1F7FEF725FD00EBC00101EB001061686D
:1033F000B0468900B0FBF1F0B0FBF5F06FF01801BA
:10340000484307EB800106EB0110B0FBF5F000F03C
:10341000F006FEF70DFD00EBC00101EB0010616846
:103420008900B0FBF1F0B0FBF5F006EB0016FEF7FB
:10343000FFFC00EBC00101EB001061688900B0FBEC
:10344000F1F7FEF7F5FC00EBC00101EB001061683D
:103450008900B0FBF1F0B0FBF5F06FF018014843C4
:1034600007EB800108EB0110B0FBF5F0216800F0DC
:103470000F0030448860BDE8F081000021AA4400BC
:103480002E2E2F447269766572732F53544D33324A
:10349000463178785F48414C5F4472697665722F97
:1034A0005372632F73746D3332663178785F68615D
:1034B0006C5F756172742E6300000000003801407B
:1034C0002DE9F041984617460E460446069D1DE03C
:1034D000681C1BD02DB1FDF7DFFFA0EB0800A84250
:1034E00014D92068C16821F4D071C1602068416995
:1034F00021F001014161202084F8390084F83A006C
:10350000002084F838000320BDE8F08120680068BE
:1035100036EA000004D00020B842D9D00020F3E7FA
:103520000120F9E7FEE700000FB4054B10B503A931
:10353000044A029800F06AF910BC5DF814FB000020
:1035400065400008C8000020490050EAC12018BFAB
:1035500004204A0D18BF40F0010040F2FF72B2EBA8
:10356000515F08BF40F00200012808BF05207047E6
:103570002DE9F0414F1E00EBC7010446D1E90001DF
:1035800015461E4637F006020DD02A463346FCF794
:103590006CFF7F1E04EBC703D3E90023FCF7BEFEDC
:1035A00037F00602F1D1022F25D0042F13D0062FB9
:1035B00018BFBDE8F0812A463346FCF756FFD4E930
:1035C0000A23FCF7ABFE2A463346FCF74EFFD4E94C
:1035D0000823FCF7A3FE2A463346FCF746FFD4E94E
:1035E0000623FCF79BFE2A463346FCF73EFFD4E950
:1035F0000423FCF793FE2A463346FCF736FFD4E952
:103600000223FCF78BFE2A463346FCF72EFFD4E953
:103610000023BDE8F041FCF781BE00000022134604
:1036200010460149FCF793BF0000F03FFCF776BE5F
:103630000022134610461146FCF789BF40F20132C2
:1036400000204FF0E041FDF759B90000024A002088
:103650001107FDF753B9000001FDFFFF02E008C8A4
:10366000121F08C1002AFAD170477047002001E0FC
:1036700001C1121F002AFBD17047000001490860F8
:1036800070470000CC0000202DE9FF5F82B00021D0
:10369000DDE90430020DDDF840B0034318D044F6F4
:1036A0001050A2F2FF3242431514119801281FD086
:1036B000A5EB0B00401C5FEA000A4FF000064E4FDE
:1036C000DFF83891B046504615D5CAF1000413E032
:1036D000119801244AA3012801D16FEA0B01029835
:1036E000119AC0E90031C0E9024206B0BDE8F09F7E
:1036F000CBF10000DFE704460021404A491842EBC5
:103700000450CDE9001012E0E00707D032463B46F6
:1037100040464946FCF7A9FE8046894632463B466C
:1037200010461946FCF7A1FE06460F466410002C11
:10373000EAD1DDE90401DDE90023BAF1000F06DA80
:10374000FCF793FE42464B46FCF78FFE05E0FCF784
:10375000FEFE42464B46FCF7FAFE04460E460022A9
:10376000284BFDF7FBF803D84FF0FF30014607E088
:103770000022254B20463146FCF7D0FDFDF7D5F859
:10378000102409E0002C0ADB0A220023FCF7D0FFFA
:10379000039B30321A55641E50EA0102F2D1641CB8
:1037A000039AC4F111031444119A012A03D001228F
:1037B00008430DD10AE0084304D000204FF0110B5C
:1037C000119072E7A3EB0B056D1E0DE05B4504DD68
:1037D0004FF0000205F1010504E003DA4FF00002AA
:1037E000A5F10105002AECD002981199C0E9023137
:1037F000C0E9004579E70000000014400000F03FF8
:10380000300000000000F0430000E03F2DE9FF4FD2
:1038100095B09B468946064600250FE2252877D1BC
:1038200000242746F84A0121059400E0044316F8D5
:10383000013F203B01FA03F01042F7D130782A28EB
:1038400011D06FF02F033078A0F13002092A16D87A
:10385000059A44F0020402EB820203EB4202104498
:10386000761C0590EFE759F8042B0592002A03DA3D
:10387000504244F40054059044F00204761C307821
:103880002E2816D116F8010F44F004042A280DD072
:103890006FF02F023078A0F13003092B09D807EB25
:1038A000870302EB4303C718761CF3E759F8047B40
:1038B000761C30786C280FD006DC4C2817D068288E
:1038C0000DD06A2814D104E0742810D07A280FD1C2
:1038D0000DE044F400140AE044F4801401E044F4E0
:1038E00040147278824202D104F58014761C761C52
:1038F000307866280BD013DC582877D009DC0028F4
:1039000075D04528F6D04628F4D047281AD19DE135
:1039100018E0632835D0642879D0652812D195E164
:10392000702873D008DC6728F1D069286FD06E2822
:103930000DD06F2806D1B5E073282CD0752875D02E
:10394000782874D05A46179990476D1C75E1C4F3D6
:103950000250022809D003280DD0D9F800100428FD
:103960000DD00D6009F1040967E1D9F80010EA17DC
:10397000C1E90052F6E7D9F800100D80F2E70D70AA
:10398000F0E719F8041B8DF8001000208DF80100F5
:10399000EA46012003E059F804AB4FF0FF3061071D
:1039A0004FF0000102D40DE008F101018846B94250
:1039B0000FDA8045F8DB1AF808100029F4D108E086
:1039C00008F1010188468142FADB1AF80810002943
:1039D000F6D105985B46A0EB080721463846179AB2
:1039E00000F094FA284400EB080507E04DE029E1D7
:1039F0000DE01AF8010B5A4617999047B8F10108E3
:103A0000F7D25B4621463846179A13E142E00A2274
:103A10000092C4F302524FF0000A022A08D059F86B
:103A200004CB032A4FEAEC710AD00DE029E02AE02A
:103A300009F1070121F00702F2E802C1914609E00D
:103A40000FFA8CFC4FEAEC71042A03D14FFA8CFC7C
:103A50004FEAEC71002907DA0A460021DCF1000C7C
:103A600061EB02012D2202E0220504D52B228DF804
:103A70000420012203E0E20701D02022F7E790466C
:103A800059E00A2102E010220DE010214FF0000A57
:103A900000910BE010224FF0000A44F004040827C4
:103AA000009203E008224FF0000A0092C4F3025291
:103AB000022A05D059F804CB0021032A08D009E0D6
:103AC00009F1070121F00702F2E802C1914605E081
:103AD0001FFA8CFC042A01D10CF0FF0C4FF00008F7
:103AE000220728D5702806D0009B83F0100353EAE4
:103AF0000A0305D00EE040228DF80420012208E0E0
:103B00005CEA010206D030228DF804208DF8050011
:103B100002229046009B83F0080353EA0A030AD16D
:103B20005CEA010201D1620705D530228DF804203C
:103B30004FF001087F1E582804D034A003900EA82F
:103B400002900DE036A0F9E753466046009AFCF774
:103B5000EFFD84460398825C0298401E029002703A
:103B60005CEA0100F0D1029806A9081A00F1200AC7
:103B7000600702D524F4803400E00127574502DDB8
:103B8000A7EB0A0000E0002000EB0A010090059876
:103B90004144401A0590E00306D45B462146179A3B
:103BA000059800F0B3F90544002706E001A85A463D
:103BB000C05D179990476D1C7F1C4745F6DBE003FD
:103BC0000CD55B462146179A059800F09FF90544ED
:103BD00004E030205A46179990476D1C0099481E02
:103BE00000900029F5DC08E0029802995A46007816
:103BF000491C0291179990476D1CBAF10001AAF176
:103C0000010AF1DC65E1000009280100303132339E
:103C10003435363738396162636465660000000008
:103C200030313233343536373839414243444546F2
:103C30000000000000F058F90544761C3078002898
:103C40007FF4ECAD19B02846BDE8F08F620700D4D0
:103C5000062709F1070222F0070CFCE80223E146DF
:103C600003F000485FEA080C02D00FF2702C0DE060
:103C70005FEA045C02D50FF2682C07E05FEAC47CBF
:103C800002D00FF2602C01E0AFF2700C4FF0FF3861
:103C900023F00043CDF850C065280CD006DC452841
:103CA00009D046281DD047283DD13DE0662818D0D0
:103CB00067287ED138E00021112F01DB112000E0C0
:103CC000781CCDE9000106A90EA8FFF7DDFCDDE9AF
:103CD0000F010E9A03910021009207F1010A04914D
:103CE0004DE04FF000400097CDE9011006A90EA865
:103CF000FFF7CAFCDDE90F0203920E9B1199002227
:103D0000DDF80CA00093049211B9791C00EB010AB4
:103D1000B7EB0A0004D4C0F1FF3007F1010A0490A8
:103D2000AAEB0700019044E0012F00DA01270021EF
:103D3000112F01DD112000E03846CDE9000106A970
:103D40000EA8FFF7A1FCDDE90F010E9A03910021F7
:103D500004910092BA4621070CD40399514500DA28
:103D60008A46BAF1010F05DD009AAAF10101515C02
:103D7000302908D0B84202DA10F1040F06DA012126
:103D8000CDE9011015E0AAF10101E9E7002805DC01
:103D9000049901440491AAEB000102E0411C514541
:103DA00000DD8A460499401A401C01904FF0004003
:103DB0000290200704D40198504501DBCDF804801F
:103DC00000208DF84F0002980DF14F07B0F1004F21
:103DD00025D02B200E9002984FF0020800280CDA14
:103DE000404202902D200E9007E00A210298FCF735
:103DF00089FC3031029007F8011DB8F10001A8F1EB
:103E00000108F2DC02980028EFD1791E0E980870A4
:103E1000307800F0200040F0450007F8020D12A8AD
:103E2000C01B00F107081498007800B1012000EBD6
:103E30000A01019801EBE07105984144401A401EC7
:103E40000590E00306D45B462146179A059800F0DA
:103E50005DF805441498007818B15A4617999047B0
:103E60006D1CE00324D55B462146179A059800F0A7
:103E70004DF805441CE00498002807DBDDE9030148
:103E8000884203DD0098405C179901E017993020C3
:103E90005A469047049805F10105401C049001988A
:103EA000401E019004D12E205A46179990476D1C50
:103EB000BAF10001AAF1010ADDDC05E017F8010BF7
:103EC0005A46179990476D1CB8F10001A8F10108F6
:103ED000F4DC5B462146179A0598ABE62D000000FE
:103EE0002B000000200000002DE9F04104460025D1
:103EF0001E461746880404D405E039462020B04702
:103F00006D1C641EF9D52846BDE8F0812DE9F0410D
:103F1000044600251E469046C80301D5302700E020
:103F20002027880404D505E041463846B0476D1C7B
:103F3000641EF9D52846BDE8F08100002DE9104047
:103F4000FCF7C8FD0028FBD0BDE81040FCF7F8BD29
:103F5000704700002DE9F04F2F4C87B08146616813
:103F600088424ED2A06900284BD1206BFCF791FB10
:103F700082468B46206AFCF78CFBCDE90001606B22
:103F8000FCF787FB07468846E06AFCF782FB05469C
:103F90000E46FDF781FA8446CDE904ABDDE9000168
:103FA000CDE90201CDE900782A46334661461B4837
:103FB000FFF7BAFA0120A06119A0FFF7B5FA0025B2
:103FC00004F1380656F82500FCF763FB02460B4661
:103FD00018A0FFF7A9FA6D1CEDB20B2DF2D317A0B4
:103FE000FFF7A2FA1B4E002556F82500FCF751FBFF
:103FF00002460B460FA0FFF797FA6D1CEDB20B2D92
:10400000F2D36168894504D912490020F4318860EF
:10401000A06107B0BDE8F08F280000209869000873
:104020000A496E70757420617272617920646174DE
:10403000613A20002025662C202000000A6F75744C
:1040400070757420617272617920646174613A20C4
:104050000000000058050020002100E0491C8142BA
:10406000FCD9704713B56423012269460248FEF764
:10407000F1FD00981CBD0000080700202DE9F04765
:1040800090460E46044610F1FF4F00D30024204610
:10409000FCF7E6FA0546FCF7C9FA2146FCF7CBF82F
:1040A000814601223146284600F002FA0446B8F162
:1040B000000F1ED02E2030554046FCF7C0FA0246B5
:1040C0000B4600200C4900F041FB07460D464846D0
:1040D000FCF7DFFA3A462B46FCF7C7F9FCF7ECFA97
:1040E000FCF7BEFA31194246BDE8F047491C00F022
:1040F000DFB9BDE8F0870000000024402DE9F05F43
:10410000414C01258046E1684FF00009884271D892
:10411000E06900286ED1FCF7DDFC070021D0FCF738
:104120000FFD024620623949002000BF01EB8003E9
:104130005B6841F82030401C3128F7DBC1F8C4200F
:10414000484600268A46C4F8209000BF5AF8261038
:10415000FCF71CF8761C322EF8DB2D49FCF7A0F892
:10416000206260784FF0804610BBD4E90A01834694
:10417000FCF75EF80146B2463046FCF791F8254957
:10418000FCF704F801464FF07E50FCF789F806462C
:1041900060635946206AFCF74BF820F00040314636
:1041A000FCF7A6FA02D22078012802D0207818B1B4
:1041B00010E0206AA0620DE0206AA16A0646FCF7C2
:1041C00037F8154920F00040884201DD504500DDF8
:1041D000A66225706078022803D13846FCF7B0FC4F
:1041E000A0626078012801D1206AA0622069E5619F
:1041F000401C2061E168884504D90448C4F81C903B
:10420000C830C560BDE8F09F28000020840500206C
:10421000000048420000C0400AD7233C2DE9F04787
:1042200000F0FCFF002000F0E9FF20210A2001F04F
:1042300057F86D4C01236DA0D4E9001201F0DEF8AF
:1042400001F054F84FF47A794F464846FCF7FCFEEB
:10425000002000F0D3FF0A21084601F041F8D4E91C
:104260000012012365A001F0C9F819210A2001F00C
:1042700037F8D4E90012012364A001F0BFF8282127
:104280000A2001F02DF8D4E90012012363A001F007
:10429000B5F801F02BF83846FCF7D6FE614D082042
:1042A000102185F864006048286685F85C10A865D0
:1042B00036225E492846FBF745FF5C4EF08EE886C5
:1042C000B06BA863B08FA887F08FE887112206F142
:1042D000400105F14000FBF735FF96F8510085F8E5
:1042E0005100706D6865002000F088FF20210A20D1
:1042F00000F0F6FFD4E9001201234DA001F07EF892
:1043000000F0F4FFFCF738FCC020FCF7DFFC0E20C7
:10431000FCF7E8FC0020FCF7CDFCFCF70DFC384670
:10432000FCF792FE0025464E2F460120FFF7E6FEE1
:104330000A20F761FCF788FE6D1C642DF5DB404F09
:1043400000253837DFF8FC80FFF7F8FD47F8250037
:1043500048F825006D1C0B2DF6DB306AFCF799F947
:10436000394A3A4BFBF7DAFFFCF7A6F9384A3949E4
:10437000F062FCF76EFB3063002000F03FFF20216D
:104380000A2000F0ADFFD4E90012012332A001F0B1
:1043900035F800F0ABFF4846FCF756FE002000F071
:1043A0002DFF0521084600F09BFFD4E900120123F0
:1043B0002CA001F023F83221022000F091FFD4E973
:1043C000001201232BA001F019F81421002000F0A5
:1043D00087FF2D480023D0E900122CA001F00EF831
:1043E000BDE8F04700F082BF1000002053747261F6
:1043F0007274696E672E2E2E00000000444F204E0E
:104400004F542050555420414E5900005448494EB5
:104410004753204F4E205448450000005343414C21
:1044200045000000D000002000080140B006002038
:104430005374617274696E67202E2E2E2E00000058
:1044400028000020580500209A9999999999B93F18
:1044500000000F43ACB08542416C6C20646F6E6508
:104460002100000057454947485420494E20474104
:104470004D3A000031307468206F726465722066B6
:10448000696C6C74657200001800002020202020E8
:10449000202020202020202020202020202020201C
:1044A000202020202020202020202020200000006C
:1044B00030B50D4600240A2109E000BF90FBF1F35E
:1044C00001FB130390FBF1F030332B55641C0028E3
:1044D000F4D13020944202DA2855641CFAE72146D0
:1044E000284600F035FE00202855204630BD00004B
:1044F00070B54FF400610F4D4E0004460A2806D2F5
:104500004FF000022846FCF791FF002206E009D98F
:104510004FF001022846FCF789FF01223146284668
:10452000FCF784FFB4F5FA7F02D903490020086044
:1045300070BD0000000801404C06002008B5FDF7E2
:10454000C5F9FEF731FEFEF70BFD2148416941F048
:10455000010141614069002200F001000090114614
:104560000C20FDF751FA0C20FDF71EFA002211462F
:104570000D20FDF749FA0D20FDF716FA16481549EA
:10458000002401604FF4E131C0E901140C21C46042
:10459000C0E904418461C461FEF79AFAFEF768FD40
:1045A0000D480E49AC3801600D49C0E901144FF4C3
:1045B0008041C0E9034144618461C4610462FCF745
:1045C00071FFFFF72BFE00BF00F00CF8FCE70000C6
:1045D000001002400038014008070020005400404D
:1045E000801A060010B5074CE068FFF787FD606889
:1045F00000F018F82068FFF77BFFA068BDE81040C6
:10460000FFF7A8BC4C0600200549002051F82020E7
:10461000521C41F82020401C0428F7DB70470000A2
:104620004C0600203EB5264CA168884205D900BF43
:1046300024494FF000004860606140D26069002862
:104640003DD1D4E90A02216BFCF73AFA60621421E9
:104650000A2000F045FE04226946606AFFF70EFD5D
:10466000194D00236846D5E9001200F0C7FED5E9D0
:104670000012002315A000F0C1FE3221022000F03C
:104680002FFE6078144D20B1012808D0022812D1E5
:104690000BE0D5E90012012310A000F0AFFED5E930
:1046A0000012012317A000F0A9FED5E90012012392
:1046B0001EA000F0A3FE00F019FE012060613EBDC7
:1046C000280000204C060020180000202047616DC3
:1046D00020202020000000001000002031307468ED
:1046E000206F726465722066696C6C74657220203C
:1046F00020202020202020202020202020202020BA
:1047000020200000327468206F7264657220666930
:104710006C6C746572202020202020202020202016
:104720002020202020202020200000004E6F204646
:10473000696C6C74657220202020202020202020AD
:104740002020202020202020202020002DE9F04DB6
:104750001D460C4698B0174621F0004123F0004357
:10476000002814BF4FF0010C4FF0000C0CEB440C70
:10477000FE4A0CEB02064FEA620C66452BD33E0064
:1047800018BF012606EB45061644F94A964222D385
:10479000F84A53EA070C02D0944205D148B918B040
:1047A00000201146BDE8F08D002808BF4FF0000C36
:1047B00001D04FF0010C0CEB440212F5001F0AD897
:1047C000002F14BF4FF0010C4FF0000C0CEB450212
:1047D00012F5001F07D918B03A462B462146BDE80E
:1047E000F04DFEF723BF0022DFF88CA3002CB8BFEA
:1047F000534526DADFF884C36345A8BF022220DAD6
:10480000DFF870C39C451CDCDFF874C30CEB235C41
:10481000BCF1140F08DDCCF1340627FA06FC0CFAC3
:1048200006F6BE420DD108E05FB9CCF1140623FABA
:1048300006FC0CFA06F69E4203D10CF00102C2F10E
:10484000020251EA000C19D1002D17DA002C18BF12
:10485000022A01D0012A07D00220FEF70FFF18B06C
:10486000BDE8F04DFEF7DABE0220FEF707FFFEF7C7
:10487000D5FE18B081F00041BDE8F08DB7F1000C15
:104880006CD1534525D104F1804212F5801201BF4D
:1048900000280020B74918B008BFBDE8F08DB54822
:1048A000884207DC002DA1BF6046294618B0BDE84C
:1048B000F08D07E0281E05DA80F0004118B0604650
:1048C000BDE8F08DAF497944D1E9000118B0BDE8E9
:1048D000F08DDFF8A0C2634525D1002D1FDA19B194
:1048E000514512D1D8B909E0002840F0EC82A24A23
:1048F000214618B062F31E01BDE8F08D002021466C
:1049000018B060F31E01BDE8F08D08DA18B0234638
:10491000BDE8F04D024600206146FBF718BE18B016
:104920002146BDE8F08D514518DAB5F1804F0DD024
:10493000A5F1005CBCF1FF5C10D1B4F1000C0DDB03
:1049400018B06146BDE8F04D00F00FBC234618B02A
:104950000246BDE8F04D1946FBF787BD060024F07E
:10496000004C3BD1D9B1514533D1002C06DD002D8F
:10497000A1BF0020514618B0BDE8F08D002C01DD2C
:10498000002D1BDB002C13DA002D11DB012A4FF068
:10499000000014BF78497C4918B0BDE8F08D022AA8
:1049A00018BF002C0AD0012A08D1002C06DA0AE030
:1049B000002CB8BF002D11DA012A04D0002018B055
:1049C0000146BDE8F08D18B000204FF00041BDE871
:1049D000F08DA1F14050B0F17F601AD0012000EBC2
:1049E000E47050EA020421D0624C521E4FF0000BDA
:1049F000104304BF4FF0000B644C654883427CDDDC
:104A0000644A654893421FDD884217DB002D25DB91
:104A100037E0002C00DA4AB1022A0CBF01204FF027
:104A2000FF3018B0BDE8F04DFBF709BE0120FEF7DE
:104A300025FE18B0BDE8F04DFEF7FABD4D4A8A429A
:104A400002DC002D0ADC1CE0814202DA002D18DABB
:104A500004E0484B994220DD002D12DD0220FEF7D4
:104A60000DFEFEF7EBFD05460E4600225346584666
:104A70002146FBF7FAFC18B066F31E012846BDE894
:104A8000F08D0220FEF7FAFDFEF7E0FD0A46214612
:104A900018B062F31E01BDE8F08D00223046614679
:104AA000FBF7DDFC80460E466FF00102FBF726FFA8
:104AB0004FF05532394BFBF7D5FC42463346FBF7F6
:104AC000D4FC0022364BFBF7CDFC824642463346EF
:104AD000049110461946FBF7C8FC5246049BFBF7AD
:104AE000C4FC8A4600904FF0C0422E4B40463146EF
:104AF000FBF7BBFC2C4A2B4B00E027E0CDE906017D
:104B000051460098FBF7B1FC82460191274A284B99
:104B100040463146FBF7A9FC5246019BFBF79FFC40
:104B200082460B4602460591DDE90601FBF7F6FBDE
:104B3000DDE90623002688463046FBF790FC524606
:104B4000059BFBF78FFC024600F07EB90020B1F513
:104B5000801F07DA352230466146FBF7CFFE064656
:104B60006FF0340000EB215024E00000FFFF1F0035
:104B7000FFFF0F000000F03F0000F07F0000404307
:104B800001FCFFFFC62000000000F0FF0000F0BFA6
:104B90000000E0410000F043FFFFEF3F5555D53FD7
:104BA0000000E03F4715F73FFE822B6544DF5DF8CC
:104BB0000BAE543EA0F2FF300190C1F3130040F061
:104BC0007F6141F040510291FE498842D8BF0020E8
:104BD00004DDFD498142C8BF012001DD0D9008E0E0
:104BE00000200D900198401C01900298A0F58010C3
:104BF00002900299F54878440B910D9900EBC100A1
:104C0000D0E900230F9330460A920B99FBF727FC5B
:104C1000CDE90601DDE90A2130460F9BFBF77EFB5B
:104C200002460B460020EA49FBF791FC059102463B
:104C30000B460090DDE90601FBF717FC1490E548F0
:104C40008A464FF0000878440299006812904FF0AD
:104C5000005040EA61010D980F9B01EB804000F588
:104C6000002109910A9A1298FBF7F9FB32460B9B37
:104C7000FBF7F8FB42465346FBF7F7FB064602916B
:104C800040465146099B129AFBF7EFFBDDE90623EC
:104C9000FBF7E8FB3246029BFBF7E1FB059B009A22
:104CA000FBF7E3FB0091149A049053461046194613
:104CB000FBF7DBFB06460246C7480B46029106217E
:104CC0007844FEF755FCCDE90510029B32461046AC
:104CD0001946FBF7CAFBDDE90532FBF7C6FB059178
:104CE0000646534640461946149AFBF717FB009BAD
:104CF000049AFBF7BAFB3246059BFBF70FFBCDE9A5
:104D000005104246534610461946FBF7AEFB0022FB
:104D1000B24B02910A90FBF701FBDDE90532FBF78C
:104D2000FDFA0E464246AD4B4046FBF798FB029B10
:104D30000A9AFBF794FBDDE90532FBF793FB424649
:104D400002910A90334610465146FBF78EFBCDE99F
:104D500006015346149A02990A98FBF786FB8A4685
:104D600002903346424600990498FBF77EFB534677
:104D7000029AFBF7D3FA82460B4602460591DDE91B
:104D80000601FBF7CBFADDE906230020884606463C
:104D9000FBF765FB5246059BFBF764FB82460991D6
:104DA0004FF060428E4B30464146FBF75EFB04906D
:104DB00006918C4A8A4B50460999FBF756FB82466E
:104DC0000291894A894B30464146FBF74EFB5246D9
:104DD000029BFBF7A3FA864B7B440D9A03EBC203BD
:104DE000D3E90023FBF79AFA0E9007910198FBF79D
:104DF00026FC0591DDE9061382460E9A0498FBF71E
:104E00008DFA7C4A7A440D9B02EBC303D3E900235D
:104E100000930292FBF782FA5246059BFBF77EFA5B
:104E20000026884652463046059BFBF718FB009B40
:104E3000029AFBF714FB069B049AFBF710FB079BF7
:104E40000E9AFBF70FFB024600200B4602903846F5
:104E50002946FBF70AFB824601912B463846194644
:104E6000029AFBF7FCFA32464346FBF7FEFA52463B
:104E7000019BFBF753FA07468A46324643462946CA
:104E80000298FBF7F2FA05460E463A465346FBF700
:104E900045FA594A8846914221DBA8EB020353EABE
:104EA000000210D12A463346FBF7D9FACDE90401B6
:104EB000524A534B38465146FBF730FADDE904239A
:104EC000FBF74CFD21D20220FEF7D8FBFEF7B6FB24
:104ED0000A46214618B062F31E01BDE8F08D494B29
:104EE00028F000429A4210D3474A08EB020353EAE3
:104EF00000027FF4C6AD2A463346FBF7B0FA3A46C5
:104F00005346FBF72BFD7FF6BCAD0022019228F043
:104F100000403E493E4A01EB2051824223DA481CC0
:104F20004FF4801121FA00F040443A4AC0F30A518C
:104F30007A44394BA1F2FF31CB4020EA0303C0F39E
:104F4000130040F48010C1F11401C84012680190B0
:104F5000B8F1000FBCBF4042019028463146FBF734
:104F60007EFA05460E462A46334638465146FBF73A
:104F7000D5F94FF000084246284B40460591FBF713
:104F800074FACDE90601264A264B40460599FBF7FF
:104F90006CFA009102902A46334640460599FBF789
:104FA0005EFA3A465346FBF75DFA1F4A1F4BFBF782
:104FB0005CFA009B029AFBF7B1F907468846024665
:104FC0000B4635E08E9803007AB60B000E1D0000EC
:104FD0000000F03F461D0000741C00000000084067
:104FE00009C7EE3FFD033ADCF5015B14E02F3EBE3E
:104FF0004C1B0000101B000000009040FE822B653F
:105000004715973C00CC904000346F3F01FCFFFFF8
:105010000000E03F5C1A0000FFFF0F00432EE63F58
:10502000396CA80C615C20BEEF39FAFE422EE63FD7
:10503000DDE90601FBF772F9DDE9062305460E46B8
:10504000FBF70DFA3A464346FBF70CFA0F462A46A1
:105050003346009010461946FBF707FA824602468F
:105060002E4888460B4605217844FEF781FA5246C1
:105070004346FBF7FAF92A463346FBF7F3F9804635
:105080008A463B4628463146009AFBF7EEF93B46F6
:10509000009AFBF743F90691009000224FF08043FD
:1050A00040465146FBF7DBF90F460C90424653460B
:1050B00028463146FBF7D9F93B460C9AFBF747FAED
:1050C000069B009AFBF7CBF92A463346FBF7C7F954
:1050D0000022134BFBF7C6F9054601980E4601EB7B
:1050E00000510815002810DC28463146019AFBF7CC
:1050F00005FCFEF729FA042808BFFEF7A7FA2846A0
:105100003146019AFBF7FAFB05460B4618B02A46D2
:1051100058462146BDE8F04DFBF7A7B9FC18000042
:105120000000F03F1FB505A30FCB8DE80F006423EF
:10513000102269460548FDF78DFD1FBD41445331DE
:1051400032323020696E6974200D0A000807002091
:1051500010B50022491E05E0835C445C845443542E
:10516000491E521C8A42F7DB10BD2DE9F04106466C
:105170000F46FBF71DFC041E0D4618BF01202843F7
:1051800020F00040C0F17F6000F1E040C00F0ED081
:10519000301C18BF0120384320F00040C0F17F6070
:1051A00000F1E040C00F04BF0120FEF767FA20467F
:1051B0002946BDE8F081000070B5842815D2402949
:1051C00013D20C4B012401F00705AC401E79C9082D
:1051D000094B01EB411100EB81000EB132B101E04E
:1051E000012A03D0195CA143195470BD195C2143F5
:1051F000FAE70000200000203801002010B5064A20
:1052000000214FF4846328B1FF245454491C99426F
:10521000F9D310BD0024F8E73801002010B5642050
:10522000FBF712FFAE2000F0D7F8202000F0D4F8F2
:10523000102000F0D1F8B02000F0CEF8C82000F027
:10524000CBF8002000F0C8F8102000F0C5F840208E
:1052500000F0C2F8A12000F0BFF8A62000F0BCF8D2
:10526000A82000F0B9F83F2000F0B6F8A42000F024
:10527000B3F8D32000F0B0F8002000F0ADF8D5204E
:1052800000F0AAF8F02000F0A7F8D92000F0A4F868
:10529000222000F0A1F8DA2000F09EF8122000F0A1
:1052A0009BF8DB2000F098F8202000F095F88D2086
:1052B00000F092F8142000F08FF8AF2000F08CF886
:1052C0000020FFF79BFF00F011F804480221018045
:1052D000418001214171084610BD000020000020DE
:1052E000014A10805180704720000020FEB5002444
:1052F0006425104F842600BF04F1B000C0B200F056
:105300006BF8002000F068F8102000F065F804EB5E
:10531000441007EB8000CDE90006012340227821EC
:1053200002950548FCF7DAF9641CE4B2082CE3D3D3
:10533000FEBD0000380100205C0600202DE9FF4F73
:10534000834624489246CEB202883244842A06D24A
:1053500081464088C1F307273844402803D3002002
:1053600004B0BDE8F08F002528E000BFABF12000BD
:1053700000FB075000243AF810801CE008FA04F003
:10538000000409D599F8021099F800002944204436
:10539000C9B2C0B2039A0BE00398C0B15FF000023B
:1053A00099F8021099F8000029442044C9B2C0B20B
:1053B000FFF702FF641CA642E0D86D1CAF42D5D8AF
:1053C000B9F8001058463144A9F80010C8E7012286
:1053D000E6E700002000002001B584B001210A2288
:1053E00004A88DE807000B46002278210248FCF74C
:1053F00075F905B000BD00005C060020F0B51D4643
:105400000E46174604460AE02B463A463146FFF759
:1054100095FF2178884201D0C8B2F0BD641C207885
:105420000028F1D1C0B2F0BD000000000000000073
:10543000000000000000000000000000000000105C
:1054400000100010001000100010000000100000FC
:1054500000000028002800280000000000000000D4
:1054600000000000000000240024007C002400480C
:10547000007C004800480000000000380054005044
:1054800000380014005400540038001000000020C0
:105490000054005800300028005400140008000098
:1054A00000000010002800280010003400480048C8
:1054B0000034000000000010001000100000000088
:1054C00000000000000000000000000800100020A4
:1054D00000200020002000200020001000000020FC
:1054E000001000080008000800080008000800106C
:1054F000000000100038001000280000000000002C
:105500000000000000000000000000100010007CFF
:10551000001000100000000000000000000000006B
:10552000000000000000000000100010000000005B
:105530000000000000000000003800000000000033
:10554000000000000000000000000000000000005B
:1055500000100000000000080008001000100010FB
:10556000001000200020000000000038004400442B
:1055700000540044004400440038000000000010C3
:10558000003000500010001000100010001000004B
:10559000000000380044004400040008001000200F
:1055A000007C0000000000380044000400180004E3
:1055B0000004004400380000000000080018002823
:1055C00000280048007C0008000800000000007C63
:1055D000004000400078000400040044003800004F
:1055E00000000038004400400078004400440044BB
:1055F000003800000000007C0004000800100010CB
:10560000002000200020000000000038004400447A
:105610000038004400440044003800000000003816
:10562000004400440044003C0004004400380000F2
:10563000000000000000001000000000000000005A
:10564000001000000000000000000000001000003A
:105650000000000000100010000000000000000C1E
:10566000003000400030000C00000000000000008E
:1056700000000000007C0000007C00000000000032
:105680000000000000000060001800040018006026
:105690000000000000000038004400040008001072
:1056A0000010000000100000000000380044004C12
:1056B0000054005C00400040003800000000001072
:1056C0000028002800280028007C00440044000036
:1056D0000000007800440044007800440044004486
:1056E0000078000000000038004400400040004006
:1056F00000400044003800000000007000480044F2
:105700000044004400440048007000000000007C99
:1057100000400040007C004000400040007C000051
:105720000000007C00400040007800400040004045
:105730000040000000000038004400400040005CD1
:1057400000440044003800000000004400440044CD
:10575000007C004400440044004400000000003885
:1057600000100010001000100010001000380000A1
:1057700000000004000400040004000400040044CD
:105780000038000000000044004800500060005055
:105790000048004800440000000000400040004075
:1057A0000040004000400040007C00000000004439
:1057B000006C006C005400440044004400440000AD
:1057C000000000440064006400540054004C004C8D
:1057D000004400000000003800440044004400443D
:1057E00000440044003800000000007800440044F9
:1057F00000440078004000400040000000000038F5
:1058000000440044004400440044005400380004B4
:10581000000000780044004400440078004800483C
:105820000044000000000038004400400030000840
:1058300000040044003800000000007C001000104C
:1058400000100010001000100010000000000044C4
:105850000044004400440044004400440038000078
:1058600000000044004400440028002800280010E4
:105870000010000000000044004400540054005494
:10588000006C0028002800000000004400280028C8
:105890000010001000280028004400000000004410
:1058A0000044002800280010001000100010000024
:1058B0000000007C000400080010001000200040E0
:1058C000007C000000000018001000100010001004
:1058D0000010001000100010000000200020001038
:1058E0000010001000100008000800000000003048
:1058F0000010001000100010001000100010001028
:1059000000000010002800280044000000000000F3
:105910000000000000000000000000000000000087
:105920000000000000000000000000200010000047
:105930000000000000000000000000000000000067
:10594000000000380044003C0044004C00340000DB
:10595000000000400040005800640044004400641F
:105960000058000000000000000000380044004023
:10597000004000440038000000000004000400342F
:10598000004C00440044004C0034000000000000C3
:10599000000000380044007C004000440038000053
:1059A0000000000C0010007C00100010001000101F
:1059B000001000000000000000000034004C004413
:1059C0000044004C00340004000000400040005837
:1059D0000064004400440044004400000000001043
:1059E00000000070001000100010001000100000F7
:1059F00000000010000000700010001000100010E7
:105A000000100010000000400040004800500060FE
:105A1000005000480044000000000070001000101A
:105A20000010001000100010001000000000000026
:105A3000000000780054005400540054005400004A
:105A400000000000000000580064004400440044CE
:105A50000044000000000000000000380044004442
:105A6000004400440038000000000000000000581E
:105A7000006400440044006400580040000000003E
:105A800000000034004C00440044004C003400048A
:105A9000000000000000005800640040004000408A
:105AA000004000000000000000000038004400300A
:105AB00000080044003800000000002000200078AA
:105AC000002000200020002000180000000000003E
:105AD00000000044004400440044004C0034000036
